:100000000C94AF000C94D7000C94D7000C94D7003C
:100010000C94D7000C94D7000C94D7000C94D70004
:100020000C94D7000C94D7000C942C2F0C949B2F7D
:100030000C94D7000C94D7000C94D7000C94D700E4
:100040000C94D7000C9417320C94D7000C94D70062
:100050000C94D7000C94D7000C94D7000C94CD319D
:100060000C94D7000C94D7000C94D7000C94D700B4
:100070000C94D7000C94D7000C94D7000C94D700A4
:100080000C94D7000C94D7000C94D7000C94D70094
:100090000C94D7000C94D7000C94D7000C94D70084
:1000A0000C94D7000C94D7000C94D7002C00360089
:1000B0003000300034003000380030003C003000A8
:1000C0004000300044003000480030004C00300058
:1000D00050003000D5F08D14A1C881CFD9F1AF20E8
:1000E00000DB20C0A0D92181FFA800A800A83F08FC
:1000F0000B000202020000090400000102020000DD
:100100000524001001052401010104240206052430
:100110000600010705810310004009040100020ADE
:1001200000000007050202400000070583024000AE
:10013000000403090412010002EF020140412336CA
:100140008000010102030141726475696E6F204CE9
:100150004C430041726475626F7900002E321124A5
:100160001FBECFEFDAE0DEBFCDBF11E0A0E0B1E00F
:10017000EAEDFFE602C005900D92A036B107D9F76F
:1001800028E0A0E6B1E001C01D92A136B207E1F778
:1001900010E0CFEAD0E004C02197FE010E94E537CD
:1001A000CE3AD107C9F70E94B2320C94EB370C94C7
:1001B00000008091FB07813039F0B0F0823079F097
:1001C000833089F48AE108959091F807892F880F88
:1001D000880F890F9091F9079650890F08958091A3
:1001E000F907825F0895089589E10895FC018091DF
:1001F0009905882311F13FB7F89482E08093E900D4
:100200002091F200822F90E01816190614F481E074
:1002100090E0882339F0289844E64093980540916F
:10022000F1004083222339F02091F200211103C014
:100230002BE62093E8003FBF08958FEF9FEF0895CE
:100240002FB7F89483E08093E9009091E800892F1C
:10025000807295FF04C09091F20080E4891B2FBF4B
:1002600008958091900581110DC082E080938C05E6
:1002700084E080938D0510928F0510928E0581E0A9
:10028000809390058CE895E00895CF93DF931F92BB
:10029000CDB7DEB76983DC01ED91FC910280F3817B
:1002A000E02D41E050E0BE016F5F7F4F09950F9058
:1002B000DF91CF91089583E08093E9008091F2006F
:1002C000882319F08AE38093E80008950E942001B2
:1002D00090E00895CF93DF931F92CDB7DEB7FC0176
:1002E0008485958597FD08C02FEF3FEF35872487DC
:1002F0000F90DF91CF910895CE0101960E94F600F4
:10030000019719F4898190E0F3CF8FEF9FEFF0CF41
:100310000F931F93CF93DF931F92CDB7DEB78C015E
:10032000FC018485958597FF0BC0CE0101960E9444
:10033000F600019771F4898190E0F8019587848730
:10034000F801848595850F90DF91CF911F910F91D2
:1003500008958FEF9FEFF1CFFC018485958597FD80
:100360000BC09FB7F89482E08093E9008091F2007F
:100370009FBF90E0019608959FB7F89482E0809324
:10038000E9008091F2009FBF90E0089540918605BA
:1003900050918705209184053091850542175307B8
:1003A000B4F49091E8009570E1F39091E80092FD2B
:1003B00019C08093F1008091860590918705019680
:1003C0008F739927892B19F48EEF8093E800809121
:1003D0008605909187050196909387058093860501
:1003E00081E0089580E00895EF92FF920F931F93AC
:1003F000CF93DF93F82E192FE62E042F81E0860F7E
:10040000880F0E94C60183E00E94C601CF2DD12F24
:10041000EC0EFD2EF11CCE15DF05B9F007FF13C061
:10042000FE0184910E94C601182F80E00E94C6013F
:10043000812321968111EFCFDF91CF911F910F91F1
:10044000FF90EF9008958881EDCF81E0F5CFDF92A6
:10045000EF92FF920F931F93CF93DF93D82E8A01D1
:10046000EB017B01E40EF51ECE15DF0559F0D7FE3A
:1004700012C0FE0184910E94C60121968111F4CF21
:100480000FEF1FEFC801DF91CF911F910F91FF90E8
:10049000EF90DF9008958881EECF0F931F93CF9355
:1004A000DF931F92CDB7DEB782E0898342E450E04C
:1004B0006FEE70E080E80E9427020E943101DC01AB
:1004C00012960D911C910115110589F0D801ED913D
:1004D000FC910280F381E02DBE016F5F7F4FC80168
:1004E000099597FD04C0F80100851185ECCF89813D
:1004F0000F90DF91CF911F910F910895615030F0CF
:100500002091F100FC0120830196F8CF289884E621
:100510008093980508950DB407FEFDCF8EB5599AC6
:1005200008950DB407FEFDCF8EB51EBC08955998F1
:100530000E94AF02862F0E94AF02852F0E94AF0259
:10054000842F0C94AF02462F50917701570F609182
:100550007801681F83E00E9497021EBC08958EBD3B
:1005600000008EB50DB407FEFCCF0895FC010E947B
:100570005103319728F068517C4F8F4F9F4FF9CF2F
:10058000AB01FC010E945103641775078E079F079A
:10059000C8F3089585E090E00C94B6028F929F9284
:1005A000AF92BF92CF92DF92EF92FF920F931F9381
:1005B000CF93DF936C017B018A0180911B0188231B
:1005C00009F45AC080919905882309F455C0809197
:1005D0008B0580FF05C08091E00082608093E00081
:1005E000E801B12C8AEFA82E93E0892E2AE3922EFF
:1005F000209711F4BB20C9F10E942001811108C08D
:10060000AA94AA20C9F181E090E00E94B602F0CF3E
:100610008C171D0611F00CF08C2F9FB7F894809268
:10062000E9002091E80025FD02C09FBFE1CF282FFF
:1006300030E0C21BD30BF701815020F04191409371
:10064000F100FACFE20EF31EBB2021F09092E800F9
:10065000B12CEBCF8091E80085FDE7CF9092E800C8
:10066000BB24B394209709F3F3CF5D9884E680937D
:100670008A05101611063CF081E090E0F6019383A4
:10068000828310E000E0C801DF91CF911F910F91AC
:10069000FF90EF90DF90CF90BF90AF909F908F90A2
:1006A0000895A1E7B1E02FB7F8947D918D919C91C9
:1006B00066B52FBFA89B05C06F3F18F47F5F8F4FB3
:1006C0009F4F22E0660F771F881F991F2A95D1F749
:1006D0000895FC01663040F488E0633040F487E020
:1006E000613028F486E003C089E06B30D8F781835D
:1006F0000895882321F0823011F081E0089580E090
:100700000895FC019081611105C081E0913039F0BC
:1007100080E005C0613021F481E09111F9CF0895A6
:10072000623021F481E0933099F7F9CF633081F79B
:1007300081E0923069F7F3CF30E73CBDDC0130E86F
:10074000439FC0011124A80FB91F5E91352F61117D
:10075000372F3C93C89500C052235EBD0197A9F77F
:1007600004D003D030E50DB43CBD089580917905E7
:10077000882329F081508093790581E0089580E0F5
:1007800008958091690180936A019FB19095907F4F
:10079000669B98601C9B9460909369018095892367
:1007A00008950F931F93CF93DF9344E0849F9001AC
:1007B0001124F901E455FF4F849140E1849FC00169
:1007C0001124C0E0D1E099878887F901E255FF4FF5
:1007D000E49120E1E29FF0011124FB87EA87805E2B
:1007E000964008E110E0B8010E94D1379B017D835B
:1007F0006C83CF014097B8010E94D1377F836E830D
:100800002052394F398328837195619571097B8313
:100810006A8382E190E09F878E8780E891E09D87E0
:100820008C87DF91CF911F910F910895E8EFF7E04A
:1008300040E158E090E080E02185222351F124300E
:1008400008F48F5F36964E175F07B1F7933020F0AC
:10085000933039F581111FC02091820566E0822F07
:1008600090E0019683709927282FAC014F5F5F4F6E
:10087000649FF001659FF00D1124E850F84F33811B
:10088000332369F3809382051092EF051092EE05F1
:1008900008959F5FD7CF813021F489E380939B0532
:1008A000F3CF8AE380939B050895CF93DF93E5EF21
:1008B000F7E080818F5F80838150990B45E0489FEE
:1008C0009001499F300D1124C901835E984FC9E5FD
:1008D000D8E0A881A49FD0011124A65DB74FFC01E8
:1008E000218111962C93E881E49FF0011124E65DAB
:1008F000F74FDC018C91808388818F5F8883DF9143
:10090000CF9108953F924F925F926F927F928F9214
:100910009F92AF92BF92CF92DF92EF92FF920F938E
:100920001F93CF93DF9300D01F92CDB7DEB73A016C
:10093000862EA9E7B1E0B701E02FDD24382E969589
:100940009695969531E061FD34E060FD330F62FDD0
:1009500032955FEF539F7001E094F0947595679521
:100960007595679575956795462F4F3F4CF4409563
:10097000941B20FD440F489F600C711C8D1C4FEF91
:1009800017FF0BC0300E20FF02C0000F111F601AAE
:10099000710A8D0817FD8394EE2750E845030E0E6B
:1009A000A00DB11D5E1B351608F0352E57E0541B07
:1009B000591714F4952FD39450E85319482E552401
:1009C00021FD02C04318550820FF02C0440C551CED
:1009D00011245B824A82932E00907701700C009064
:1009E0007801801C19C0599833E03EBD640C751C19
:1009F000811CAA24831509F0A3940CD08EBC07D0C7
:100A00007EBC05D06EBC03D01EBC03D00895C89533
:100A10000000C895C8950895641875088108E3DF3B
:100A200041151CF0992371F564C0A058BF4FC32C29
:100A300020FD0CC06EB51EBC699DBC90BF20B128C6
:100A4000BD92C89500C0CA94A9F711C06EB51EBC6E
:100A5000699DB001DEDFEEB41EBCE99C7001BC9064
:100A6000F094BF20B72ABD92C895CA9479F7112493
:100A7000A319B1099A9509F45CC0AA2019F00DB424
:100A8000599AB1DFFD01E058FF4FC32C20FD0EC085
:100A90006EB51EBC699DBC90BE20B028BD92B080D2
:100AA000BF20B128B192CA9499F716C06EB51EBC8A
:100AB000699DB001BC90F080AEDF00C0EEB41EBCFA
:100AC000E99C0094B020B62ABD921094F120F72A38
:100AD000F1920000CA9451F71124A50FB11D9A9507
:100AE00061F6DD2031F1AA2021F00DB4599A7BDFA7
:100AF000C89520FD0CC06EB51EBC699DBC90BE2083
:100B0000B028BD92C89500C03A94A9F712C06EB53E
:100B10001EBC699DB0017DDF9EB51EBC999D902DC8
:100B2000BC909095B922B62ABD92C8953A9479F7AF
:100B3000C8951124599A0DB40F900F900F90DF9122
:100B4000CF911F910F91FF90EF90DF90CF90BF90CA
:100B5000AF909F908F907F906F905F904F903F905D
:100B600008956F927F928F92AF92CF92DF92EF9221
:100B7000FF920F931F93DC01922F2A2DF92FE42F60
:100B80003701802EC114D104A1F0969596959695C3
:100B9000A0FC990F949F7001ED9C700C811CFC9C33
:100BA000700C811CFD9C800CEC9C600C711C112451
:100BB000811C7B018D01682DA301CF010E9482045D
:100BC0001F910F91FF90EF90DF90CF90AF908F909B
:100BD0007F906F9008954F925F926F927F928F9265
:100BE000AF92BF92CF92DF92EF92FF920F931F933B
:100BF000CF93DF932C01EB013901842E842FB901AF
:100C00000E94A3020E949102B82E0E948B02C0345F
:100C1000D105D4F492012B0D311D232BA9F09E0197
:100C2000280F311D121613067CF492E0690E711C18
:100C3000811C92E0A92E6801082D7301282F4B2DED
:100C4000BE01C2010E94B105DF91CF911F910F91AA
:100C5000FF90EF90DF90CF90BF90AF908F907F90FC
:100C60006F905F904F900895EF92FF920F931F93B4
:100C7000CF93DF93E42EF22E90915F0804E29F3F22
:100C800021F009E0909F002D1124060FC82FD0E01D
:100C90000C0F1D2F111D24E630E743E060E270E0E9
:100CA00089E690E00E94EB0520913F0830914008D2
:100CB000C90137FF04C088279927821B930B6AE07C
:100CC00070E00E94D1376436710514F063E670E07D
:100CD00037FF02C06C597F4FEE2081F08B01000F6F
:100CE000111F060F171F0C0F1D1F23E63CEC43E0DE
:100CF00063E370E082E790E00E94EB0520913D08FD
:100D000030913E08C90137FF04C088279927821B0C
:100D1000930B6AE070E00E94D1376436710514F0DD
:100D200063E670E037FF02C06C597F4FFF2081F00F
:100D30008B01000F111F060F171F0C0F1D1F23E63D
:100D40003CEC43E06AE370E082E790E00E94EB0550
:100D5000DF91CF911F910F91FF90EF900895EF9247
:100D6000FF920F931F93CF93DF93E42EF22E90E028
:100D7000663030F020915B0899E0299F902D112476
:100D8000C82FD0E0092F060F0C0F1D2F111D2AE4CC
:100D900031E643E070E060E089E690E00E94EB0518
:100DA000EE20A1F080913A0890913C08890F8E01C5
:100DB00093E0899F000D111D11242AE73BEC43E0CD
:100DC00068E070E086E790E00E94EB05FF20A1F06C
:100DD0008091390890913B08890F8E0193E0899F9B
:100DE000000D111D11242AE73BEC43E06FE070E099
:100DF00086E790E00E94EB05DF91CF911F910F9164
:100E0000FF90EF9008950F931F9320915E0821307B
:100E1000A9F088F02230A9F02330B1F0082F10E0BB
:100E200070E02AEF3EE546E0892F90E00E94EB0556
:100E30001F910F91089567E19BE5F0CF68E294E37D
:100E4000EDCF67E198E0EACF66E0F9CF0F931F930B
:100E5000CF93C82F80912B08882359F00C2F10E0D6
:100E600025E33DEE43E060E170E086E290E00E9421
:100E7000EB0580913008882359F00C2F10E025E312
:100E80003DEE43E060E170E08CE290E00E94EB0513
:100E900080913508882359F00C2F10E025E33DEEB2
:100EA00043E060E170E082E390E00E94EB05CF91C7
:100EB0001F910F9108954F925F926F927F928F9240
:100EC000AF92BF92CF92DF92EF92FF920F931F9358
:100ED000CF93DF93EC012B013901842E842FB901CC
:100EE0000E94A3020E949102B82E0E948B02C03879
:100EF000D105FCF490E449165104DCF49E012B0D5D
:100F0000311D12161306ACF49201280F311D121672
:100F100013067CF492E0690E711C811C93E0A92EEB
:100F20006801082D7301282F4B2DB201CE010E94BC
:100F3000B105DF91CF911F910F91FF90EF90DF905E
:100F4000CF90BF90AF908F907F906F905F904F90B9
:100F50000895EF92FF920F931F93CF93DF93E82EA4
:100F6000F0905E0880910108823009F469C038F47D
:100F7000882309F48AC08130D9F1C0E009C08330E8
:100F800009F493C08430C9F7F110F7CFD7E1CBE56E
:100F900080910708823009F4CBC008F097C08823FD
:100FA00009F4E6C0813009F49DC080910D088230BB
:100FB00009F431C108F000C1882309F44DC1813022
:100FC00009F405C180911308823009F498C108F032
:100FD00064C1882309F4BBC1813009F46AC1C1111D
:100FE000AAC1DF91CF911F910F91FF90EF900895CB
:100FF0002091FF078AE090E0AC01421B5109842F49
:10100000880F840F880F9091FE07890F0E2D10E036
:1010100053E0859F000D111D112423EC3EEA44E0AE
:101020006FE070E08BE590E00E945B07F110A5CFC8
:101030008091FF07D3E28A3009F4D5E2CCE5A8CF4E
:101040002091FF078AE090E0AC01421B5109842FF8
:10105000880F840F880F8C5F0E2D10E053E0859F62
:10106000000D111D112423EC3EEA44E06FE070E016
:101070008BE590E00E945B07F1107FCF8091FF0726
:10108000D4E28A30D9F6D6E2D9CF0E2D10E00B5B30
:101090001F4F23EC3EEA44E06FE070E08BE590E008
:1010A0000E945B07FF2049F268CF0E2D10E0095A1D
:1010B0001F4F23EC3EEA44E06FE070E08BE590E0E8
:1010C0000E945B07F11059CFD8E2B8CF833009F402
:1010D00060C0843009F069CF51E0F51266CFD8E2E4
:1010E000C4E363CF90910408892F880F880F890F7C
:1010F000909105089650890F0E2D10E093E0899F7E
:10110000000D111D112423EB3DE844E067E270E07F
:1011100089E290E00E945B0741E0F41246CF8091A3
:101120000508D8E2C6E28A3009F03FCFC4E23DCFDD
:1011300080910508825F0E2D10E053E0859F000D21
:10114000111D112423EB3DE844E067E270E089E2E1
:1011500090E00E945B0781E0F81227CF809105089C
:10116000D8E2C5E28A3009F020CFD8E2C3E21DCF31
:101170000E2D10E0025B1F4F23EB3DE844E067E2D9
:1011800070E089E290E00E945B0791E0F9120DCFD8
:10119000ECCF0E2D10E0055B1F4F23EB3DE844E044
:1011A00067E270E089E290E00E945B0741E0F412A0
:1011B000FCCED8E2C1E2F9CE833009F45EC08430BF
:1011C00009F000CF52E0F512FDCED7E122C0909198
:1011D0000B08892F880F890F880F90910A08891BA7
:1011E0008F510E2D10E093E0899F000D111D1124E9
:1011F00021EE3DE944E060E170E086E090E00E948D
:101200005B0742E0F412DECED0910B08DA3009F031
:10121000DCE0C8E0D7CE90910B08892F880F890FAA
:10122000880F83520E2D10E053E0859F000D111D95
:10123000112421EE3DE944E060E170E086E090E0B9
:101240000E945B0782E0F812BDCE80910B08D9E0C6
:101250008A30F9F2DBE0DDCF0E2D10E00E5E1F4F7D
:1012600021EE3DE944E060E170E086E090E00E941C
:101270005B0792E0F912A6CEEDCF0E2D10E021EE25
:101280003DE944E060E170E086E090E00E945B07A9
:1012900042E0F41297CED8E0BCCF833009F468C0A6
:1012A000843009F09CCE53E0F51299CED6E0C5E328
:1012B00042C090911008892F880F880F890F909154
:1012C00011089650890F0E2D10E093E0899F000DB4
:1012D000111D112425E83DE744E066E070E089E255
:1012E00090E00E945B0743E0F41279CE80911108F0
:1012F000D6E0CDE38A30F9F4D6E0CEE31CC080918D
:101300001108825F0E2D10E053E0859F000D111D26
:10131000112425E83DE744E066E070E089E290E0D2
:101320000E945B0783E0F8125ACE809111088A3040
:1013300019F7D6E0C0E40E2D10E06D2F70E02AEF13
:101340003EE546E08C2F90E00E94EB054ACE0E2D44
:1013500010E0025B1F4F25E83DE744E066E070E0E7
:1013600089E290E00E945B0793E0F91238CEE1CF6A
:101370000E2D10E0055B1F4F25E83DE744E066E0D9
:1013800070E089E290E00E945B0743E0F41227CE10
:10139000D6E0C2E4D0CFCF93DF93FC01DB011196FE
:1013A0009C911197208585E0EF01289FC00DD11DEC
:1013B00011249A879085EF01989FC00DD11D1124AB
:1013C00029969C91988314969C9114979C831396CC
:1013D0009C912085DF01289FA00DB11D11241C9632
:1013E0009C9380858F5F8087DF91CF910895E5EF93
:1013F000F7E020812F5F20832150330B95E0929FEF
:10140000B001939F700D1124635E784F2BE4829F8F
:10141000C00111248F509A4F0C94CB09FC01A08578
:10142000B0E030E020E080E02A173B075CF49185D3
:10143000691304C09285941708F08F5F2F5F3F4FA8
:101440003596F2CF0895FC01A085B0E030E020E0B1
:101450008FEF2A173B0764F49185691305C09285C5
:10146000491710F4822F492F2F5F3F4F3596F1CF48
:101470000895FC01A085B0E030E020E08FEF2A174E
:101480003B0764F49185691305C09285941710F4A5
:10149000822F492F2F5F3F4F3596F1CF0895FC01E2
:1014A000208580E0281731F035969481691721F066
:1014B0008F5FF8CF80E0089581E00895DC011896F1
:1014C0003C91189780E0FD0120E090E0321739F060
:1014D0004185481301C09F5F2F5F3596F7CF91304C
:1014E00021F08F5F843079F78FEF0895FC0190E051
:1014F00085E02085921748F4DF01989FA00DB11D6B
:1015000011241B961C929F5FF4CF08950F931F9395
:10151000CF9310929A050CE518E0D8018C91CBE49A
:101520008C9FC00111248F509A4F0E94760AD801D7
:10153000EC91EC9FF0011124E650FA4F81E0828398
:10154000CF911F910F910895EF92FF920F931F93E8
:10155000CF93DF9300D000D0CDB7DEB77C011982E6
:101560001A821B821C82DC0118965C91FC0160E0EF
:1015700030E020E05617C1F18285813129F4265FE1
:101580003F4F6F5F3596F6CF8E3071F4818501E065
:1015900010E00C0F1D1F080F111DD8014C914F5F5B
:1015A0004C93295F3F4FEDCF8D3071F4818501E081
:1015B00010E00C0F1D1F080F111DD8014C914F5F3B
:1015C0004C932C5F3F4FDDCF8C30D9F6818501E005
:1015D00010E00C0F1D1F080F111DD8014C914F5F1B
:1015E0004C932E5F3F4FCDCF8981882359F08A815C
:1015F000882341F08B81882329F08C81882311F086
:101600002D5F3F4F90E0F70170E050E080E000E098
:1016100040E0671799F01185191309C012851E3033
:1016200049F01D3049F01C3009F451E04F5F7F5FF5
:101630003596EFCF01E0FACF81E0F8CF002349F1F2
:10164000882369F0552369F04430A0F04550550BCC
:10165000440F551F440F551F240F351F0BC0552332
:1016600049F0453038F0B3E04B9F200D311D112477
:101670002F5031099F5F943031F6822F0F900F90D9
:101680000F900F90DF91CF911F910F91FF90EF90EE
:101690000895882379F3552369F3463058F345506C
:1016A000550B440F551FD8CF9F92AF92BF92CF9248
:1016B000DF92EF92FF920F931F93CF93DF93962EBB
:1016C0005C0129E0A20EB11C75016C01EAE4CE0EAA
:1016D000D11CC0E010E0CA14DB04C1F1F501D181D6
:1016E000D13131F4105FCF5FF5E0AF0EB11CF3CF15
:1016F0000081DB3039F4692DC5010E94810391E03E
:10170000811103C090E09012EFCFCF5FDB3021F466
:10171000901251C0125FE8CF992311F0145FE4CF0B
:10172000DE3011F4185FE0CFDD3011F41A5FDCCF4A
:10173000DC3011F41B5FD8CFDA3011F41C5FD4CF4A
:10174000D73010F01E5FD0CF1F5FCECF1A3198F088
:10175000EC14FD0481F0F70191818081981619F055
:101760009E3029F41C5FF5E0EF0EF11CF1CF9D30A7
:10177000D1F71E5FF8CFC63090F09C2F990FC90F9C
:10178000CF501C0F812FDF91CF911F910F91FF90B0
:10179000EF90DF90CF90BF90AF909F900895C530AD
:1017A00089F3812F90E0880F991F63E070E00E9419
:1017B000D137162FE7CF9111B1CFC4CFFC01E95932
:1017C000FF4F20812F3F71F030E02F5F3F4F66E0E9
:1017D000629FA001639F500D1124840F951FFC018F
:1017E000808108958FEF0895CF93DF93EC010E94DD
:1017F000DE0B982FFE01E959FF4F208130E02F5F6B
:101800003F4F86E0829FF001839FF00D1124EC0F83
:10181000FD1F83818250823060F08E8D981769F0B1
:101820008BA1981751F088A5981739F081E02DA564
:10183000291380E0DF91CF91089581E0FBCFFF92E3
:101840000F931F93CF93DF93EC01062F0E94DE0BC3
:10185000F82EFE01ED59FF4F8081FE0195E0899F32
:10186000E00DF11D1124168D023009F441C0033042
:1018700059F1013009F050C0CE010E94F40B90E004
:1018800020E0882399F08FEF3E8DF31205C03F8D45
:10189000231710F4232F892F9F5F25969430A1F7EB
:1018A000DF91CF911F910F91FF9008958FEF3E8DA3
:1018B000131305C03F8D231710F4232F892F9F5F2B
:1018C00025969430A1F7ECCF90E02FEF8FEF3F8D6E
:1018D0004E8D141302C0321748F0313111F421E15A
:1018E000892F9F5F2596943091F7DACF232FF8CF79
:1018F00090E020E08FEF3F8D4E8D141302C0231730
:1019000048F0313111F421E1892F9F5F2596943001
:1019100091F7C6CF232FF8CFC3CFFC01E959FF4F72
:10192000208130E02F5F3F4F46E0429FF001439F10
:10193000F00D1124E80FF91F63810C941F0C0F9315
:101940001F93082F10919B058FEB810F833008F0B8
:1019500057C088EF97E00E948D0C282F8091EE05EC
:101960009091EF0560E370E00E94BD372D7F21303C
:1019700031F4489748F021E040E069E008C020E0F9
:1019800041E06CE0489718F421E041E066E0802FE8
:101990000E94AF061134A1F080915F080E94790384
:1019A000282F8091EE059091EF0560E370E00E9492
:1019B000BD37213049F421E040E069E0489748F420
:1019C00021E041E066E005C020E041E06CE048979E
:1019D000B8F3802F0E9434060E94D90010E093E0F3
:1019E000899F000D111D11242FE43CEC44E06DE1B2
:1019F00070E08BE690E00E94EB051F910F91089537
:101A000021E041E066E0802F0E94AF06D9CF0F931E
:101A10001F93CF93DF9380915C0890E001968370D1
:101A2000992780935C082EE320939B0510915F0813
:101A3000212F30E02F5F3F4F46E0429FE001439F60
:101A4000D00D1124C850D84F2B81233081F42BE4C2
:101A5000289FF001299FF00D1124E55CF94F2081AA
:101A6000211105C001968370992780935C0800912D
:101A70005B0880915C08081342C08B81833009F0B9
:101A80004CC062E088EF97E00E941F0CE82FF0E066
:101A9000E75CF74F80818F5F808385E0089FF001CE
:101AA0001124EA5EF74F008188EF97E00E94DE0B79
:101AB0009B81202F30E02850384FE8EFF7E06CE0B2
:101AC00078E0913079F128F0943018F4468D0413C1
:101AD0002EC02C5F3F4F35966E177F0791F78B8195
:101AE000833051F562E088EF97E00E941F0C81136C
:101AF00027C08AE080935A0881E480939B05109266
:101B0000EF051092EE0580917B05811123C0DF91D6
:101B1000CF911F910F910C94860A88EF97E00E9455
:101B20008D0CB4CF468D8013D2CF841791F2D9019A
:101B3000AF5ABF4F1C92CDCF88EF97E00E948D0C1B
:101B400080935B0880935C0880915D08815080934E
:101B50005D08D2CFDF91CF911F910F9108951F9310
:101B6000CF93DF93EC01162F0E94F40BFE01882324
:101B7000E1F090E020E08FEF368D131305C0378D34
:101B8000231710F4232F892F9F5F35969430A1F7E8
:101B90008F3F31F195E0899FC00DD11D1124CE01F9
:101BA0004E96DF91CF911F910895ED59FF4F80819F
:101BB000FE0195E0899FE00DF11D1124468DFE0187
:101BC00090E020E08FEF368D431305C0378D23174B
:101BD00010F4232F892F9F5F35969430A1F7D8CF2B
:101BE000FE01EC59FF4F8081D5CFCF93DF93EC01FD
:101BF0000E94DE0B482FFE01E959FF4F208130E0A3
:101C00002F5F3F4F86E0829FF001839FF00D1124EC
:101C1000EC0FFD1F93819250923080F0FE01ED5940
:101C2000FF4F908131968081981741F085E0989F11
:101C3000C00DD11D112481E09E8D941380E0DF91B1
:101C4000CF9108950F931F93CF93DF93EC01062F4D
:101C5000142F0E94DE0B982F84E0189FF0011124AE
:101C6000EC0FFD1F901329C0E90FF11DEF5AFF4F34
:101C70008081882339F1823029F1FE01E859FF4F34
:101C800080818823C1F0E1E0992351F0E0E09130B8
:101C900039F0E3E0923021F0E2E0933009F0EFEF29
:101CA000F0E0EE0FFF1FEC0FFD1FE75BFF4F8081A1
:101CB000918193FF0CC082E005C0E00FF11DEF5A47
:101CC000FF4F8081DF91CF911F910F91089580E0A8
:101CD000F9CF1F93CF93DF93EC01162F0E94DE0BF9
:101CE000412F682FCE01DF91CF911F910C94220ECE
:101CF000213129F4FC01E859FF4F80810895A1E0CA
:101D0000B0E0022E02C0AA0FBB1F0A94E2F72031F6
:101D100099F446130FC0E42FF0E0EE0FFF1FE80F19
:101D2000F91FE75BFF4F80819181A823B92381E0F0
:101D3000AB2B09F480E008952F3089F44613FACFD5
:101D4000413049F030F0423041F0433021F742E079
:101D5000E2CF41E0E0CF40E0DECF43E0DCCF50E037
:101D6000440F551FFC01E40FF51FDBCFDF92EF920C
:101D7000FF920F931F93CF93DF938C01F62E4FEFBB
:101D80000E94390AD82F8F3F01F1F80185E0D89FD2
:101D9000E00DF11D1124E284C4E0DD24D394DE0CB7
:101DA000CD1598F4EFEFFE1202C0CB3051F02C2F7E
:101DB0004F2D6FEFF801808191810E94780E88236A
:101DC00011F0CF5FEDCFEC12DFEF8D2FDF91CF91D0
:101DD0001F910F91FF90EF90DF9008959F92AF9227
:101DE000BF92CF92DF92EF92FF920F931F93CF9308
:101DF000DF935C01D62FE42EFC0100811181C80124
:101E00000E94DE0BC82EDE2CE11009C034E0D32E78
:101E1000D23028F0D12CD43010F423E0D22E9EE022
:101E2000992EDC1102C081E1982EFD2CC0E09F1498
:101E300090F4F501208530E090E080E08217930770
:101E4000E4F44185D41304C04285E41608F4C1507B
:101E500001963596F3CFDC1103C0FBE0FF1659F075
:101E6000FD1449F02F2D4D2F6C2DC8010E94780EC6
:101E7000811101C0CF5FF394DACFF801E959FF4F28
:101E80009081F5018781981310C0F80187A9D813B4
:101E900004C080ADE81608F4C150F80184ADD81331
:101EA00004C085ADE81608F4C1508C2FDF91CF91A6
:101EB0001F910F91FF90EF90DF90CF90BF90AF9068
:101EC0009F900895DF92EF92FF920F931F93CF930D
:101ED000DF937C01062F142F40E0612F0E94230A1C
:101EE000D82F8F3FF9F0F70185E0D89FE00DF11D65
:101EF0001124D284CEE0101301C0C1E1CD1590F0C1
:101F0000101302C0CB3051F02C2F412F602FF7015E
:101F1000808191810E94780E882311F0C150EECF0C
:101F2000DC12DFEF8D2FDF91CF911F910F91FF908A
:101F3000EF90DF900895EF92FF920F931F93CF934E
:101F4000DF937C01162FFA010081C181CF5FD0E0C1
:101F500060130FC0C231D0F4CB3049F02C2F412F89
:101F6000612FC7010E94780E811101C0DF5FCF5F32
:101F7000F1CFCF3058F42C2F402F612FC7010E9492
:101F8000780E811101C0DF5FCF5FF3CF8D2FDF911E
:101F9000CF911F910F91FF90EF900895FC018381E5
:101FA000823039F0833069F1813079F090E080E05F
:101FB000089521812650330B44E6429FC001439F80
:101FC000900D112488589F4F089521812650330B7E
:101FD00044E6429FC001439F900D1124208121308F
:101FE00041F028F0223039F0233041F008958896EE
:101FF0000895CC960895805B9F4F08958C599F4F0C
:1020000008958AEF90E008950F931F93CF93DF9385
:10201000FB012381233021F4FC012181283090F43D
:10202000EB010E94CE0F8C01CE010E94CE0F21E069
:102030008017910708F020E0822FDF91CF911F9148
:102040000F91089521E0F8CFCF93DF93CDB7DEB79E
:102050002C970FB6F894DEBF0FBECDBFFC012181D7
:102060002A3068F561112BC019861C861B86838176
:102070008A8780818F832F5F288768EF77E0CE0182
:1020800007960E9404108823D1F086E0FE0137965F
:10209000DE01119601900D928A95E1F729813A812E
:1020A0004B815C816D817E8180E090E02C960FB643
:1020B000F894DEBF0FBECDBFDF91CF9108958FEFB3
:1020C00089831A821B821C821E821D82E7CFFC013B
:1020D000662319F06250633080F491819131D1F020
:1020E000A081AF3FC9F0A40FB52FB11D8C9124E1A1
:1020F000829F900D1124892F0895A081AF3F61F038
:10210000A40FB52FB11D9C91818124E1929F800D78
:10211000112408958EEF08958FEF08956F927F92A6
:102120008F929F92AF92BF92CF92DF92EF92FF92E7
:102130000F931F93CF93DF9300D000D0CDB7DEB7BE
:102140007C01DC01CD90DC90C6010E94DE0B182FD3
:10215000F601E959FF4F2081A12C2F3F69F030E0B3
:102160002F5F3F4F46E0429FC001439F900D1124D7
:10217000C80ED91EF601A380809120019091210103
:10218000A0912201B091230189839A83AB83BC8300
:1021900060E0C7010E944F0AC82E61E0C7010E949B
:1021A0004F0AD82E62E0C7010E944F0A082F63E051
:1021B000C7010E944F0ACC2009F429C1DD2009F48F
:1021C00092C0002309F4ABC0882349F0111114C058
:1021D00093E0998391E09A831B8292E09C83002391
:1021E00009F49DC0811136C01111C4C082E08983F9
:1021F0001A8281E08B83C4C0113011F419837DC031
:10220000123021F493E09B8391E0E8CF133039F74B
:10221000198292E09A8391E09B831C83E0CF002394
:10222000C9F08823B9F0111108C083E0898381E0E7
:102230008A831B8282E08C830DC083E0113009F415
:102240006BC0123009F04AC083E0898381E08A8341
:102250001B831C828701075F1F4FB12CB394680159
:1022600084E0C81AD1087B2CADE07A1609F4A4C02A
:102270004601B9E08B0E911CAE014F5F5F4F6A2D96
:10228000C4010E946710682EAE014F5F5F4F6A2D38
:10229000C8010E9467106816E0F4F801508141817E
:1022A00033812481928185E0F401D80101900D925F
:1022B0008A95E1F7D60119965C9319971A964C9373
:1022C0001A971C963C931C971D962C931D971B9652
:1022D0009C937394B5E0CB0ED11CC6CF133009F09C
:1022E000B9CF1983A4CF002309F4B4CF882309F40C
:1022F000B1CF111104C081E0898383E099CF1130FF
:1023000009F47CCF123021F481E0898383E09FCFF0
:10231000133009F09FCF81E089831A838ACF882305
:1023200049F0111115C092E099831A8293E09B83C2
:1023300091E09C83DD2009F48DCF81118BCF1111A9
:1023400032C083E0898382E08A831B8281E073CF7D
:10235000113039F4198282E08A8383E08B831C83F5
:1023600079CF123021F4198292E09A83DFCF1330B3
:10237000D1F3E0CF113031F4198282E08A831B83DC
:1023800083E059CF123021F4198282E08A8331CF61
:102390001330D1F35FCF133009F05CCF81E08A8333
:1023A00082E08B8357CF113009F054CF82E08983CC
:1023B00083E08A831B82D3CF0B5F1F4FFDE0BF12E8
:1023C0004DCFF701108697012F5B3F4F8285882301
:1023D00059F0D70118968C9118978F5F18968C93A7
:1023E0003596E217F30791F70F900F900F900F902B
:1023F000DF91CF911F910F91FF90EF90DF90CF90E1
:10240000BF90AF909F908F907F906F900895D11064
:1024100006CF002309F41ECF882309F41BCF123006
:1024200009F0B9CF81E098CF1F93CF93DF93DC0100
:1024300018962C91A22FB0E0FC01399650E040E0B4
:102440004A175B075CF51081EB01388113132BC031
:1024500011813981131327C02150DC0118962C9368
:1024600018972D913C915181D901AF59BF4F6C9173
:1024700045E0E901649FC00DD11D11245BAB508183
:102480006C91649F200D311D1124E9015AAB2C91F0
:102490002F5F2C932FEF208311821282DF91CF9137
:1024A0001F910C948E104F5F5F4F3596C9CF7F926E
:1024B0008F929F92AF92BF92CF92DF92EF92FF9254
:1024C0000F931F93CF93DF938C01962EB42EF22E91
:1024D00021E1A22E641711F09EE0A92EE12C85E0E7
:1024E000882E77247A94AF1408F44CC09B1409F416
:1024F0003FC0E801D12CC12CD80118968C911897B7
:102500008C151D04D1F1CCF19985B91228C09A859A
:102510009F1125C0815018968C931897E3948D9144
:102520009C912A85FC01EF59FF4F3081DC01389DD9
:10253000A00DB11D1124D3962C9329853081389D8F
:10254000800D911D1124DC01D2962C9380818F5F28
:10255000808379861A861B86C8010E948E10259674
:10256000F80180858A3049F0FFEFCF1ADF0AC4CF27
:102570008BE0F812BECFF394B6CFD80118968C91A9
:102580008A30C9F7C8010E948E108E2DDF91CF913D
:102590001F910F91FF90EF90DF90CF90BF90AF9081
:1025A0009F908F907F900895CF93DF93EC01FC0173
:1025B00085E0689FE00DF11D1124399680818A83A2
:1025C00081818B8383818D8384818E8382818C83BF
:1025D000411148C0A881B9812481213161F5A859F0
:1025E000BF4F81E08C9328813981C9018C599F4F5D
:1025F000DC018C91D90195E0899FA00DB11D1124BA
:102600005E9680818C93818111968C931197838142
:1026100013968C931397848114968C9314978281CC
:1026200012968C938FEF808311821282CE01DF91FC
:10263000CF910C948E10838190E0880F991FA80F82
:10264000B91FA75BBF4F81E090E002C0880F991FC0
:102650002A95E2F72D913C911197822B932B8D9324
:102660009C93C1CFDF91CF910895FF920F931F9359
:10267000CF93DF938C01D62FF42EC0E04C2F6D2F1B
:10268000C8010E94620F8F3F61F04F2D682FC80173
:102690000E94D41281E0DF91CF911F910F91FF90A2
:1026A0000895CF5FC43051F780E0F5CF1F93CF93EB
:1026B000DF93EC01142F4AE00E94390A8F3F51F05A
:1026C000412F682FCE010E94D41281E0DF91CF917B
:1026D0001F91089580E0FACFDF92EF92FF920F935F
:1026E0001F93CF93DF938C01F62EE42EDFEFC0E033
:1026F00085E0D82E40E06C2FC8010E94230A8F3F4E
:1027000051F0F8018D9DE00DF11D11249285F9160F
:1027100010F4D82FF92ECF5FC43061F780E0DF3F8F
:1027200031F04E2D6D2FC8010E94D41281E0DF914F
:10273000CF911F910F91FF90EF90DF900895FC01D2
:10274000B08530E05FEFA0E0B31769F071856713E3
:1027500007C07285A71720F4741710F4532FA72F02
:102760003F5F3596F1CF5F3F31F0422F652F0E94DA
:10277000D41281E0089580E00895FC01B08530E036
:102780005FEFAFEFB31769F07185671307C072850C
:10279000471720F47A1710F4532FA72F3F5F359671
:1027A000F1CF5F3F31F0422F652F0E94D41281E0BC
:1027B000089580E008951F93CF93DF93EC01122FCB
:1027C0000E94230A8F3F51F0412F682FCE010E94B3
:1027D000D41281E0DF91CF911F91089580E0FACF6C
:1027E000AF92BF92CF92DF92EF92FF920F931F931F
:1027F000CF93DF937C01D62EC42EB22EC0E0DFEF44
:1028000011E185E0A82EDC16A9F0CC1699F0BC16D3
:1028100089F04FEF6C2FC7010E94390A8F3F51F0AA
:10282000F7018A9DE00DF11D11249285911710F496
:10283000D82F192FCF5FC43031F780E0DF3F31F060
:10284000402F6D2FC7010E94D41281E0DF91CF91FC
:102850001F910F91FF90EF90DF90CF90BF90AF90BE
:102860000895AF92BF92CF92DF92EF92FF920F93B3
:102870001F93CF93DF938C01E62EC42FA22E3EE050
:10288000D32E641302C021E1D22E94E0F92ED0E0C1
:10289000EC1203C02BE0F21659F02F2D4C2F6E2DA9
:1028A000F801808191810E94780E811101C0DF2D95
:1028B000F394DF1468F78EEF8C0F823020F4D4305D
:1028C00031F480E03DC0C23010F4D530D1F3D150A6
:1028D00040E06C2FC8010E94230A8F3F91F39801BA
:1028E00045E0849F200D311D1124F90139966F01B7
:1028F00084E0F82EB12CDF1590F0EC1203C0FBE061
:10290000FF1659F02F2D4C2F6E2DF80180819181EB
:102910000E94780E811101C0BF2CF394ECCFF60118
:1029200081818B11CECF4D2F6C2FC8010E94390AA7
:102930008F3F39F24A2D682FC8010E94D41281E0DE
:10294000DF91CF911F910F91FF90EF90DF90CF908B
:10295000BF90AF900895EF92FF920F931F93CF9384
:10296000DF938C01D62FE42EF22EC0E0EC1205C0CE
:10297000CF5FC430D9F780E008C02F2D4C2F6D2FCA
:10298000C8010E943114882399F3DF91CF911F91E0
:102990000F91FF90EF9008951F93CF93DF93EC0179
:1029A000122F0E94620F8F3F51F0412F682FCE01EE
:1029B0000E94D41281E0DF91CF911F91089580E0B1
:1029C000FACFCF92DF92EF92FF920F931F93CF93A4
:1029D000DF938C01D62EE42EC0E0DFEF81E1F82EEC
:1029E00095E0C92EDC1689F04FEF6C2FC8010E94CC
:1029F000390A8F3F51F0F8018C9DE00DF11D112433
:102A000092859F1510F4D82FF92ECF5FC43051F75F
:102A100080E0DF3F31F04E2D6D2FC8010E94D412AF
:102A200081E0DF91CF911F910F91FF90EF90DF90A8
:102A3000CF9008951F93CF93DF93EC01142F40E0C4
:102A40000E94230A8F3F51F0412F682FCE010E9430
:102A5000D41281E0DF91CF911F91089580E0FACFE9
:102A60001F93CF93DF93EC01142F4FEF0E94390A8D
:102A70008F3F51F0412F682FCE010E94D41281E088
:102A8000DF91CF911F91089580E0FACFCF93DF932C
:102A9000FC013085399620E03217A9F0DF01359628
:102AA000EF0124975881513161F46F3F19F06C9315
:102AB00013966C93622F0E94D41281E0DF91CF9124
:102AC00008952F5FE9CF80E0F9CF3F924F925F9258
:102AD0006F927F928F929F92AF92BF92CF92DF922E
:102AE000EF92FF920F931F93CF93DF9300D000D00C
:102AF0001F92CDB7DEB78C01F62EFC013780832CF8
:102B0000912C3401F2E06F0E711C23E062227724D5
:102B1000FC01C080D180C6010E94DE0BE82EF601C8
:102B20009FEF20E080E0368DE31205C0378D23173C
:102B300010F4982F232F8F5F35968430A1F7F6017C
:102B40009F3F09F449C025E0929FE00DF11D11243B
:102B50007E964180F601ED59FF4F908185E0A92EC8
:102B6000B12CF601899FE00DF11D11247E96DE0146
:102B70001196982F01900D929A95E1F75980869DB4
:102B8000F001879DF00D1124EC0DFD1D878D88232C
:102B900009F442C1EFEF8E1A9E0AF3E08F229924C6
:102BA000C6010E948D0C782EC6010E94F50D76108C
:102BB000E3C023E0A20EB11C93E0A922BB24932D15
:102BC00093709A151B04D1F54F2D882379F06E2D43
:102BD000C8010E9430153EC1EC59FF4F8081F601BB
:102BE00095E0899FE00DF11D1124B2CF652DC8013C
:102BF0000E9430158111E2C04F2D6E2DC8010E9438
:102C0000E1148111DBC04F2D6E2DC8010F900F9084
:102C10000F900F900F90DF91CF911F910F91FF9028
:102C2000EF90DF90CF90BF90AF909F908F907F906C
:102C30006F905F904F903F900C94E1148823C9F0FF
:102C4000482D6E2DC6010E94220E8150823078F4EC
:102C5000442D6E2DC8010E94EE0E843040F02F2DC1
:102C6000442D6E2DC8010E94DB138111A7C04F2D8A
:102C7000AECFC6010E94F40B882389F14F2D652D3C
:102C8000C8010E943015811199C02F2D442D6E2D41
:102C9000C8010E94BD13811191C04F2D6E2DC80136
:102CA0000E94E11481118AC04F2D6E2DC8010F9032
:102CB0000F900F900F900F90DF91CF911F910F9178
:102CC000FF90EF90DF90CF90BF90AF909F908F904C
:102CD0007F906F905F904F903F900C943015AE01B5
:102CE0004F5F5F4F6E2DC6010E949B0F811130C058
:102CF0004F2D652DC8010E94301581115FC04F2DE9
:102D00006E2DC8010E94E114811158C04F2D6E2D07
:102D1000C8010E943015811151C04F2D6E2DC80180
:102D20000F900F900F900F900F90DF91CF911F9108
:102D30000F91FF90EF90DF90CF90BF90AF909F905A
:102D40008F907F906F905F904F903F900C944615BE
:102D5000442D652DC8010E94EE0E4F2D652D843047
:102D600038F0C8010E941A15811128C04F2D652D19
:102D7000C8010E94301579CF8823B9F1482D6E2DF6
:102D8000C6010E94220E932D9370E3E0AE0EB11C9B
:102D9000F3E0AF22BB249A151B0439F42F2D442DE8
:102DA0006E2DC8010E94BD1360CF8111F7CF4F2D4A
:102DB0006E2DC8010E941A15882381F30F900F9081
:102DC0000F900F900F90DF91CF911F910F91FF9077
:102DD000EF90DF90CF90BF90AF909F908F907F90BB
:102DE0006F905F904F903F900895C6010E94F40B42
:102DF0004F2D652D882361F0C8010E943015811187
:102E0000DDCF2F2D442D6E2DC8010E94BD1375CF2F
:102E1000C8010E941A1529CFC6010E94F50D88230A
:102E200039F02F2D4E2D6E2DC8010E94CC14C4CF29
:102E3000C6010E94F40B8823A9F04F2D652DC8010F
:102E40000E9430158111BACF2F2D442D6E2DC8014F
:102E50000E94BD138111B2CF4F2D6E2DC8010E946B
:102E6000E11459CF652DC6010E94AF0D2F2DFC0135
:102E70004181652DC8010E94BD1376CF2F923F92EC
:102E80004F925F926F927F928F929F92AF92BF927A
:102E9000CF92DF92EF92FF920F931F93CF93DF9326
:102EA000CDB7DEB728970FB6F894DEBF0FBECDBF03
:102EB0009C018B01DB0180E09FEF8C93AD01495CAD
:102EC0005F4FFD019183128213823596E417F50757
:102ED000C9F78F5FDB96843081F790E01F82E5E0D1
:102EE000FE2EFBE3EF2ED90118968C91981770F502
:102EF0009F9DA0011124DA0119965D01A20EB31E57
:102F0000420F531FFA0182858131E9F0D5018C917E
:102F1000FB01E89EE00DF11D112440AD6F014F9DB6
:102F2000C00CD11C1124A6014F5F5F4FDA018C93B6
:102F3000D50111968C91DA0111968C9380AD8F5F3B
:102F400080AF9F5FD0CFB1E0BF83FBCF44E0B42E12
:102F50004090240150902501609026017090270137
:102F60005AE0D52E64E1A62E49825A826B827C8279
:102F70007801EFEFEE1AFE0AC12CC394170194E01A
:102F8000290E311CCD82AD81AB3059F14101BFEF2B
:102F90008B1A9B0AAE014F5F5F4F63E0C4010E9432
:102FA00067108887AE014F5F5F4F63E0C7010E94E3
:102FB0006710E885E81770F4D7012C9111969C9161
:102FC000119785E0F40101900D928A95E1F7F101E6
:102FD00021839283FD81FF5FFD8385E0280E311CF4
:102FE000D2CFF5E0EF0EF11C8BE0C812C6CFD801AE
:102FF0002C91223058F1243010F4B4E0BE83D80173
:1030000011968C9111978F3F21F5D9968C93BA9494
:10301000055C1F4FB110A8CF8F8128960FB6F8948A
:10302000DEBF0FBECDBFDF91CF911F910F91FF90FB
:10303000EF90DF90CF90BF90AF909F908F907F9058
:103040006F905F904F903F902F900895E5E0EE8352
:10305000D6CFF8018281863028F080AD843010F020
:1030600011AED5CFF80190E03E81390F81818F3FBD
:1030700081F0828138132FC09F5F35969B30A1F776
:10308000892F880F880F980F9C5ED801D9969C9342
:10309000BECFF8019111F4CFD801DA968C91DA976E
:1030A00031813F3FD9F03281830F9F5F223010F48E
:1030B000815001C0D801DA968C9335969B3061F728
:1030C000D801DA968C91883308F059C08E3208F412
:1030D0005CC0E0E523C0F80190E0DECF933089F1D9
:1030E00070F49130B1F0923059F78D3028F53EE10F
:1030F000C32E8B3060F1D801D996AC9288CF943032
:1031000061F19530E9F68732A0F58332E0F1E8E22B
:1031100005C0883038F4863060F0E8E0D801D996F0
:10312000EC9375CFE5E08A30C8F3D801D9961C92AC
:103130006ECFF801A1AE6BCF8F30B8F7F801D1AEEA
:1031400066CF873138F428E2C22E8331A0F6F80129
:10315000C1AE5DCF8B3190F3E8CF8E3130F492E386
:10316000C92E8B31A0F3EEE1D9CF813220F0F801E6
:1031700077CF8B32E0F7D801D996DC9248CF8234F2
:1031800038F08C3490F6ECE3C9CF8AE5C82EDFCF57
:10319000E6E4C4CFFC018181813141F49081943017
:1031A00098F4945D892F880F890F08952381848175
:1031B0008450990BAC016BE0269F400D511D1124EA
:1031C000842F880F840F089580E008954F925F92B6
:1031D0006F927F928F929F92AF92BF92CF92DF9227
:1031E000EF92FF920F931F93CF93DF93782E562E7B
:1031F00080918606882309F46FC060904406CCE075
:10320000D0E0C619D109CC0FCC0F8AE08615D8F5CD
:1032100083E095E4C92E96E0D92EC80F0C2E000C41
:10322000DD0B412CA72CB12C20E3822E912C6414B1
:1032300009F452C0F60121812223F1F180919B050E
:103240008C3319F130F18E53823018F580915C087F
:103250008130F9F482818823E1F08BE2E82EF12CB1
:103260005520C9F080919A05481215C08091EE054D
:103270009091EF05B4010E94BD37489760F4213169
:1032800071F4850112C080E0C4CF8091FA078130CB
:1032900009F38FE2E3CF2131A9F4850119C0C601FA
:1032A0000E94CA188501080F111D2EEA3DEC41E06D
:1032B000B701CE010E945B074394F5E0CF0ED11C0D
:1032C0002896B5CFC6010E94CA188501080F111DA6
:1032D00020E138E841E0ECCF80918F068823A1F00F
:1032E0009091D106992381F0072D10E093E0899FFA
:1032F000000D111D112424E335EC42E064E070E080
:1033000090E080E00E94EB058091DA068823A1F02E
:1033100090911C07992381F0072D10E0E3E08E9F28
:10332000000D111D11242CE132ED42E06DEF7FEF15
:103330008FE190E00E94EB058091F9058823A1F0D0
:1033400090913B06992381F0072D10E0F3E08F9FC9
:10335000000D111D112428EA3BEC42E064E070E00E
:1033600084E690E00E94EB05DF91CF911F910F91D1
:10337000FF90EF90DF90CF90BF90AF909F908F9095
:103380007F906F905F904F900895FF920F931F93DF
:10339000CF93DF93D82FF62EC42F23E062134AC0B9
:1033A0008091EE059091EF0560E370E00E94BD37DB
:1033B000489708F43FC080911C088823A1F08BE156
:1033C00098E00E94CA18282F2D0F3327331F890138
:1033D0006C2F70E06D5E7F4F20E138E841E081E3C3
:1033E00090E00E945B07F1104BC08091EE05909138
:1033F000EF0560E370E00E94BD37489708F440C0D5
:1034000080912108882309F461C080E298E00E943D
:10341000CA18282F2D0F3327331F89016C2F70E016
:103420006B5E7F4F2CE433E142E084E190E00E9448
:103430005B074CC0809126088823A1F085E298E0C4
:103440000E94CA18282F2D0F3327331F89016C2F94
:1034500070E0675F7F4F20E138E841E086E290E06E
:103460000E945B0731E0F312A6CF8091EE059091A8
:10347000EF0560E370E00E94BD37489708F49BCFEA
:10348000809117088823A1F086E198E00E94CA186D
:10349000282F2D0F3327331F89016C2F70E0635FB6
:1034A0007F4F20E43CE642E08CE390E00E945B0723
:1034B00032E0F312A5CF8091EE059091EF0560E325
:1034C00070E00E94BD37489708F49ACFDF91CF9102
:1034D0001F910F91FF9008951F93CF93DF93EC01FD
:1034E000162F88818B8389818C83813169F468836D
:1034F00089818B3029F48881811302C080E189831E
:10350000DF91CF911F9108958B3091F7CE010E94EA
:103510008103882369F318838FE08983E9CF5C985E
:10352000FC012591CF012EBD00000DB407FEFDCF9B
:103530006150B1F75C9A0895CF92DF92EF92FF92BB
:103540000F931F93CF93DF93CDB7DEB72C970FB6B2
:10355000F894DEBF0FBECDBF8B01FB01238121306C
:1035600021F02230B9F080E003C060810E94540B4A
:10357000F80122819091FA07883198F58E3048F54C
:103580008830B0F1291749F094E0C92ED12CE12CF4
:10359000F12C08C00E94A40AEBCF28E0C22ED12C47
:1035A000E12CF12C0E94F636A70196010E944E37BD
:1035B000C8012C960FB6F894DEBF0FBECDBFDF91C9
:1035C000CF911F910F91FF90EF90DF90CF900C94CF
:1035D000241082E0C82ED12CE12CF12C2913E2CF4B
:1035E000D3CF81818B3011F00E94F63660E0E0CFBE
:1035F0001C861B867C852FEF30E040E050E060E0C9
:1036000080E090E02C960FB6F894DEBF0FBECDBFE1
:10361000DF91CF911F910F91FF90EF90DF90CF90AE
:103620000895CF92DF92EF92FF920F931F93CF9363
:10363000DF93CDB7DEB7CE5FD1090FB6F894DEBF0A
:103640000FBECDBF8C018FEFC750DF4F8883C95F9E
:10365000D040C650DF4F1882CA5FD040C550DF4F00
:103660001882CB5FD040C450DF4F1882CC5FD0406F
:10367000C350DF4F19821882CD5FD040F12CEE2469
:10368000E3946F2DC8010E94540B863408F076C075
:10369000893308F099C08B3208F098C08C3108F05B
:1036A00097C096E08F3008F06AC0F39424E0F212DD
:1036B000E8CFC8010E94A40A8A3508F08BC08B3479
:1036C00008F0B0C08C3308F0AFC0883208F0AEC04C
:1036D00096E0893108F07FC0CE01C996DE011196CF
:1036E0007D019E012B5D3E4FFC01F79712823596BE
:1036F000E817F907D9F7108211821282CF01CB9611
:103700008217930789F7BE016F5F7F4FC8010E9440
:103710003E1741E050E04C0F5D1F44515F4FDE010A
:10372000119690E080E0D9962C91D9972F3F09F41B
:10373000C4C1222309F47CC0820FDB964A175B07C1
:1037400091F7803518F0992309F490C0FE01319665
:1037500090E080E020E031AD3F3F09F4B0C1332379
:1037600009F468C0230FFB96AE17BF07A1F72C33EF
:1037700008F0F5C020E090E080E060C09AE01B8295
:10378000EC82F9829A8390E09E838D83BE0167501C
:103790007F4FCE0101960E940410882309F485CF43
:1037A00068EF77E0CE0101960E940410882309F4A7
:1037B0007CCF86E0FE013196DE01A750BF4F01901D
:1037C0000D928A95E1F771CF99E0D9CF98E0D7CFE4
:1037D00097E0D5CF9AE02FEF29831B8222E02C833C
:1037E0009A8390E09E838D83BE0167507F4FCE0108
:1037F00001960E940410882309F46ECF68EF77E0E9
:10380000CE0101960E940410882309F465CF86E05A
:10381000FE013196DE01A750BF4F01900D928A95AF
:10382000E1F75ACF99E0D7CF98E0D5CF97E0D3CF43
:103830009F5F83CF9F5F97CF20E090E0D701D9961D
:103840003C913F3F09F43DC1332309F486C0830F07
:10385000BBE3EB0EF11CEE16FF0681F7823308F492
:1038600084C0923008F481C021117FC08FEFCD5009
:10387000DF4F8883C35FD040CC50DF4F1882C45FD6
:10388000D040CB50DF4F1882C55FD040C950DF4FCA
:1038900019821882C75FD04083E0CA50DF4F888307
:1038A000C65FD040BE0167507F4FCE018D509F4F05
:1038B0000E940410882309F458C068EF77E0CE0115
:1038C0008D509F4F0E940410882309F44EC086E05B
:1038D000FE01ED50FF4FDE01A750BF4F01900D924A
:1038E0008A95E1F786E0FE01E750FF4FDE01A35124
:1038F000BF4F01900D928A95E1F7C351DF4F2881A8
:10390000CD5ED040C251DF4F3881CE5ED040C15134
:10391000DF4F4881CF5ED040C051DF4F5881C05F3C
:10392000D040CF50DF4F6881C15FD040CE50DF4FD5
:103930007881C25FD04080E090E0C250DF4F0FB688
:10394000F894DEBF0FBECDBFDF91CF911F910F91D5
:10395000FF90EF90DF90CF9008952F5F79CF88236D
:1039600009F46ACF911106CF81CFC450DF4F88810F
:10397000CC5FD040882309F4B5CF9091FB079430F9
:1039800009F049C0813009F0ADCFC650DF4F8881C2
:10399000CA5FD040873008F4A5CF0E94F63623E0F6
:1039A000C22ED12CE12CF12CA70196010E944E379A
:1039B000611198CFC650DF4F8881CA5FD0408830F0
:1039C000B9F050F4873009F08DCF86E0C650DF4F54
:1039D0008883CA5FD04086CF8930B1F08A3009F041
:1039E00081CF0E94F6362BE030E040E050E004C08A
:1039F0000E94F636A70196010E944E37CE018750ED
:103A00009F4F0E9469036ECF0E94F63626E030E099
:103A100040E050E0F1CF0E94F63622E030E040E096
:103A200050E00E944E3761115DCFC650DF4F1881C4
:103A3000CA5FD040173008F455CFC450DF4F88819B
:103A4000CC5FD0409FEF980F923008F04BCFC15120
:103A5000DF4F1882CF5ED040C350DF4F28813981BD
:103A6000CD5FD040CF50DF4F39832883C15FD04036
:103A7000C051DF4F8883C05FD040C750DF4F88817F
:103A8000C95FD040C351DF4F8883CD5ED040115015
:103A9000C251DF4F1883CE5ED04068EF77E0CE0191
:103AA00083519F4F0E940410882309F41BCFC650F6
:103AB000DF4F1883CA5FD04015CF8C5E3ECE8F5F3C
:103AC00052CE9F5FC5CE8F929F92BF92CF92DF92D0
:103AD000EF92FF920F931F93CF93DF93CDB7DEB793
:103AE00062970FB6F894DEBF0FBECDBFDA01139612
:103AF0002C912150223098F062960FB6F894DEBFD8
:103B00000FBECDBFDF91CF911F910F91FF90EF902E
:103B1000DF90CF90BF909F908F900C94111BDC0191
:103B2000ED91FC919F01285E3F4FB12CA185A430FF
:103B300009F0B3943696E217F307C1F78A016B01D7
:103B40007C01FB018381843009F4BAC0C7010E9463
:103B5000111B2D873E874F87588B698B7A8BCE013F
:103B60000D960E94CE0F4C01892BA1F1C6010E9437
:103B7000CE0F8816990671F1B801C7010E949C1AF0
:103B80002F83388749875A876B877C8788895111AB
:103B900048C0882309F464C0C8010E94CE0F298957
:103BA0003A898217930731F0821B930B883791056E
:103BB00008F063C00E94F63622E030E040E050E0BA
:103BC0000E944E37613071058105910509F055C09D
:103BD000188A53C0D8011196CC90D12CF12CE12C2D
:103BE000C114D104E104F10439F00E94F636A701B2
:103BF00096010E944E376B016C2DC80162960FB67C
:103C0000F894DEBF0FBECDBFDF91CF911F910F9112
:103C1000FF90EF90DF90CF90BF909F908F900C948B
:103C200024108823E9F0B2E0BB121EC0CE01079633
:103C30000E94CE0F29893A898217930729F0821BA7
:103C4000930B8837910580F40E94F63622E030E02D
:103C500040E050E00E944E37672B682B692B21F41F
:103C600086E0FE0137960CC0BE01695F7F4FCE0132
:103C70000D960E940410882399F386E0FE013D967C
:103C8000DE01119601900D928A95E1F729813A8122
:103C90004B815C816D817E8180E090E062960FB601
:103CA000F894DEBF0FBECDBFDF91CF911F910F9172
:103CB000FF90EF90DF90CF90BF909F908F900895EE
:103CC000BA01C7010E949C1A2D873E874F87588BE7
:103CD000698B7A8BC7010E94111B2F833887498714
:103CE0005A876B877C878889882359F1552329F265
:103CF000E2E0BE121BC0CE010D960E94CE0F2B85B6
:103D00003C858217930729F0821B930B8837910516
:103D100068F40E94F63622E030E040E050E00E9475
:103D20004E37672B682B692B09F4A7CFBE01635F61
:103D30007F4FCE0107960E940410882309F49DCF7F
:103D40008FCF552309F499CFC8010E94CE0F2B8540
:103D50003C858217930731F0821B930B88379105BE
:103D600008F07ECF0E94F63622E030E040E050E0DE
:103D70000E944E37613071058105910509F070CFC1
:103D80001A866ECF2F923F924F925F926F927F92E0
:103D90008F929F92AF92BF92CF92DF92EF92FF925B
:103DA0000F931F93CF93DF93CDB7DEB7C65FD109D3
:103DB0000FB6F894DEBF0FBECDBF0E94C103182F0F
:103DC0008091EE059091EF059C012F5F3F4F30935E
:103DD000EF052093EE05F0909B05E6EFEF0DEA333B
:103DE00008F06DC2F0E0E950F14E0C94E537311F58
:103DF00081208120812081208120812081208120BB
:103E00008120812081208120792189218921892196
:103E10008921892189218921892189218921892152
:103E20008921892189218921892179218120812064
:103E3000812081208120812081208120812081207A
:103E40008120812052225C22A6223E23E423772473
:103E5000B324B724CB27D627F72CA12DCE2DC22EE5
:103E6000E12E1092F40780E025E094E0943011F404
:103E7000823068F1E091F407E29FF0011124E35EE3
:103E8000F84F8083E091F407E29FF0011124E35E94
:103E9000F84F9183E091F407E29FF0011124E35E73
:103EA000F84F8383E091F407E29FF0011124E35E71
:103EB000F84F9483E091F407E29FF0011124E35E50
:103EC000F84F12823091F4073F5F3093F4079F5F01
:103ED0009F3061F68F5F843041F6E091F40785E012
:103EE000E89FF0011124E35EF84F2EEF2083E0916C
:103EF000F407E89FF0011124E35EF84F91E191830C
:103F0000E091F407E89FF0011124E35EF84F23836A
:103F1000E091F407E89FF0011124E35EF84F9483E9
:103F2000E091F407E89FF0011124E35EF84F12825C
:103F30008091F4078F5F8093F4071092F50700E0FB
:103F400085E0B82EC090F4070C1508F040C0D12CC5
:103F5000F12CE12C402E512C712C612C4C145D0461
:103F60006E047F048CF4C418D508E608F70841F005
:103F70000E94F636A70196010E944E376B017C0124
:103F80004C0C5D1C6E1C7F1CB09E90011124235EA6
:103F9000384FF901DE0111968B2D01900D928A9513
:103FA000E1F7B49CC0011124835E984FFC01D90154
:103FB0002B2D01900D922A95E1F7FE013196DC013F
:103FC0008B2D01900D928A95E1F70F5FBBCF109278
:103FD000EF051092EE058BE080939B058FEF8093A9
:103FE0005F0810925B0810925C08109260089AE0DB
:103FF00090935D088093FA0794E09093FB07809379
:10400000F8071092F9071092FD071092FC07E8EFED
:10401000F7E061E478E009E3E02E08E0F02E9F018C
:1040200090E054E042E090875187868317821386A0
:104030001286D9015E968C935E975F961C925F976D
:1040400090961C92DB011D921D92BD01D7011D921D
:104050007D011F964C931F9753964C9353975796F9
:104060004C9357975B964C939F5F36962B5F3F4FD1
:104070009430C9F680932A0810922B0810922C08CD
:1040800080932F08109230081092310880933408E2
:1040900010923508109236081092590810925A085A
:1040A000ECEEF5E028E137E04FEF91E0DF018DE045
:1040B0001E964C931E971F961C921F9750961C920B
:1040C0005097815015968111F3CF1586DF01A15BC2
:1040D000BF4F9C93E55BFF4F2E173F0739F7809149
:1040E0005E088F5F837080935E08282F30E02F5F1B
:1040F0003F4F2370332720938205811102C00E9415
:10410000D10313FF04C086E380939B05D8C0F090D1
:104110009B05B5EF8B2E8F0CB6E1912CBF1510F4DB
:10412000AEE19A2E80915E0864E070E0FB01E81B2E
:10413000F109CF010E94D137982F880F890F890D7F
:10414000881608F46DC0082D10E090E002968017E4
:1041500091070CF465C02091000130910101E091BC
:104160000801F0910901E217F3070CF0A8C0809153
:1041700002019091030160910A0170910B01861771
:1041800097070CF09CC04091040150910501240F49
:10419000351F309301012093000140910601509199
:1041A0000701840F951F90930301809302014091B2
:1041B0000C0150910D01A0910E01B0910F014A0F19
:1041C0005B1F50930D0140930C01E217F30724F499
:1041D000861797070CF473C081E00E94F7098CE3FF
:1041E00096E00E948E10F394F0929B051092EF05DA
:1041F0001092EE0580915E0864E070E09B01281B40
:104200003109C9010E94D137982F990F890F980E53
:10421000892D90E00196801791070CF450C074C06E
:1042200010E000E0F4E0EF2EF12CC82CD12C560168
:104230003FEFA31AB30A0130E1F180915E08A801B3
:10424000481B5109CA010396B7010E94D137282F94
:10425000220F280F290D821660F130E02E5F3F4FAC
:104260002C153D0534F18091EE059091EF050697F0
:1042700001F5802F0E94F70980919B058F5F809345
:104280009B051092EF051092EE0580915E08D70114
:10429000A81BB109CD01B7010E94D137982F990F02
:1042A000890F890D8A151B0421F4809144060E9410
:1042B000D1030F5F1F4F0430110509F0BCCFCA5066
:1042C000DF4F0FB6F894DEBF0FBECDBFDF91CF91A9
:1042D0001F910F91FF90EF90DF90CF90BF90AF9024
:1042E0009F908F907F906F905F904F903F902F9016
:1042F000089513FD08CFF394F0929B050E94550496
:1043000080915E088111DBCF809144060E94D10329
:10431000D6CF13FDF8CEE5EF9E2E9F0C80915E0860
:1043200064E070E0FB01E81BF109CF010E94D13786
:10433000880F880F835F981608F467C0092D10E076
:1043400090E00396801791070CF45FC02091000164
:1043500030910101E0910801F0910901E217F307A2
:104360000CF0ADCF809102019091030160910A01A0
:1043700070910B01861797070CF0A1CF40910401B3
:1043800050910501240F351F309301012093000146
:104390004091060150910701840F951F90930301EE
:1043A0008093020140910C0150910D01A0910E01EA
:1043B000B0910F014A0F5B1F50930D0140930C0108
:1043C000E217F30724F4861797070CF478CF81E0FF
:1043D0000E94F7098CE396E00E948E10F394F0920D
:1043E0009B051092EF051092EE0580915E0864E047
:1043F00070E09B01281B3109C9010E94D137880F49
:10440000880F835F90E0029606CF10E000E074E032
:10441000E72EF12CC92CD12C56013FEFA31AB30A79
:104420000130C9F180915E08A801481B5109CA01F9
:104430000396B7010E94D137880F880F835F9816C3
:1044400050F190E003968C159D052CF18091EE05BE
:104450009091EF050697F9F4802F0E94F70980915B
:104460009B058F5F80939B051092EF051092EE05E0
:1044700080915E08D701A81BB109CD01B7010E9448
:10448000D137880F880F835F8A151B0421F4809130
:1044900044060E94D1030F5F1F4F0430110509F03D
:1044A000BFCF0DCF1092EF051092EE0587E38093FA
:1044B0009B050E94550403CF8091F9058A3020F4B2
:1044C00080E00E94F709F8CF809144068A3020F4FA
:1044D00081E00E94F709F8CF80918F068A3020F49E
:1044E00082E00E94F709F8CF8091DA068A3020F442
:1044F00083E00E94F709F8CF80912B08811102C058
:104500000E94550480913008811102C00E94550418
:1045100080913508811102C00E9455041092EF0568
:104520001092EE0587E380939B0581EF95E00E9452
:104530008E108CE396E00E948E1087E896E00E9431
:104540008E1082ED96E00E948E10B9CE8091820589
:10455000813009F465C02032310509F0B0CE282F32
:1045600030E0A9014F5F5F4F66E0F62EF49E8001B8
:10457000F59E100D11240850184F2E5F3F4F2370E9
:1045800033272F5F3F4FF29EA001F39E500D112461
:104590004850584FBBE48B9FC0011124B8018F5085
:1045A0009A4F0E94631D29833A834B835C836D83FA
:1045B0007E838D819E81F80195838483538331832B
:1045C0002083E09082058E2D90E00196F89E800178
:1045D000F99E100D11240850184FD80113968C9194
:1045E0008823D9F068EF77E0C8010E94041088237F
:1045F000A1F0F801848195819093FD078093FC07D9
:1046000083818093FB0781818093F9078081809368
:10461000F807E092FA07E09268010E9416044FCE74
:1046200080917B058823D9F040E158E064E078E090
:104630008CE396E00E94631D6D837E838D819E8155
:104640009093090880930808509307083093050851
:1046500020930408513059F020F0533031F088E3B2
:1046600053CD83E080937F05FACF84E0FBCF3650B3
:10467000309381052093800582E0F4CF15FF09C0B7
:1046800080917F05813019F410927F0518CE823019
:1046900088F416FD13C017FF28C080917F05811193
:1046A00013C080918105843008F009CE8F5F80931C
:1046B000810505CE81E080937F0501CE80917F0545
:1046C000823048F78F5FF7CF813049F480918005C1
:1046D000843008F0F4CD8F5F80938005F0CD833077
:1046E00011F00C94F72E8150E6CF14FF19C0809181
:1046F0007F05811107C080918105882309F4DFCDF2
:104700008150D5CF813039F480918005882309F418
:10471000D6CD8150E1CF8230A9F2833099F2CFCD4E
:1047200013FFCDCD80917F05823041F0843031F090
:10473000833009F0C4CD1092070835C09FEF9983EC
:104740001B821E821D82909181059A5F9A8384301C
:1047500071F583E08C8368EF77E0CE0101960E94CB
:104760000410882379F14D815E815093FD074093B9
:10477000FC073C813093FB072A812093F90799813C
:104780009093F80781E08093FA078093060850938E
:104790000908409308083093070820930508909370
:1047A00004088093680187E380939B0536CF80914E
:1047B0008005843021F48EEF898382E0CBCF89831A
:1047C00081E0C8CF8BE3A0CC2032310509F077CD52
:1047D0000091680100935F0800935B0800935C08F8
:1047E000E02EF12C2BE4D22E0D9D80011124980196
:1047F0002F503A4F59016AE278E0C9010E94CB0973
:104800006FE278E0C5010E94CB0964E378E0C5015E
:104810000E94CB09F801E45DF94F81E08283F80141
:10482000EF5CF94F8283F801EA5CF94F8283809153
:104830005F0890E0019626E0289FF001299FF00D87
:104840001124E850F84F8381833071F432E0E30E95
:10485000F11C43E0E422FF24DE9CF001DF9CF00D1C
:104860001124E55CF94F1082B1EFEB2EB5E0FB2E81
:1048700010E000E086E0A82E95E0992EB12C6801AA
:104880005EE0C50ED11CD70118968C91B816E0F4E5
:1048900080915F0890E00196A89EF001A99EF00D1E
:1048A0001124E850F84FC601B99C800D911D1124C8
:1048B00084519A4F238122506FEF223008F060819B
:1048C0000E946C1AB394DFCFC7010E948E10BBE424
:1048D000EB0EF11C055B1F4F0C32E1E01E0771F679
:1048E0008CE380939B0580E480936701E8CC237080
:1048F0003327232B09F0E3CC8091F905882309F1B4
:10490000ECEEF5E090E080E045E03FEF25852150BA
:10491000DC01249FA00DB11D1124A650BA4F3C9379
:1049200011961C92119712961C922585215025876D
:10493000E55BFF4F855B9F4F8C3221E0920731F79B
:10494000BECC109201011092000110920901109248
:104950000801109203011092020110920B011092B3
:104960000A018AE0D1CB87E313FDCECBA8CC80919E
:10497000FA07813009F0B1C0112399F080916701E5
:10498000882331F0109267018CE396E00E94760A4A
:104990001032B1F480919A05882319F081508093E8
:1049A0009A0580916701882309F489CC815080930E
:1049B0006701811184CC8CE396E00E94760A7FCC5B
:1049C000103459F480919A05209144062150330BFC
:1049D0008217130634F78F5FE2CF103811F00C9472
:1049E000FD2E409144062CEE35E090E080E0491722
:1049F00051F0F901E55AFF4F508151118F5F9F5FD0
:104A00002B5F3F4FF4CF833060F6E0919A0535E09D
:104A1000E39FF0011124EB5BF94F81E08283C1CF6A
:104A2000E0919A0545E0E49FF0011124EB5BF94F1A
:104A30008281882309F4B5CF1282B3CF833009F085
:104A4000B0CF10925A0810922B088FEF80932A084B
:104A50001092300880932F08109235088093340804
:104A60001092590880E090E025E03FEF4091440625
:104A7000841718F5829FF0011124EB5BF94F4281F6
:104A80004423C9F0929FD0011124A65DB74F408105
:104A90004C93418111964C931197438113964C93FB
:104AA0001397448114964C93149712961C9230835A
:104AB000118212829F5F8F5FD9CF8CE396E00E94B4
:104AC0008E1010925A0880917B05811102C00E94BD
:104AD000860A8DE380939B0564CF10925A0810924A
:104AE0002B088FEF80932A081092300880932F08AC
:104AF000109235088093340810925908C0905F08CE
:104B00002C2C312C5BE4C59E6001112486010F50D2
:104B10001A4FC60184519A4F5C01DC0115968D90A5
:104B20009C90C4010E94DE0B582EF801878190E012
:104B30009C012F5F3F4F46E0429FF001439FF00DE5
:104B40001124E80DF91D438003968370992701967F
:104B5000489FF001499FF00D1124E80DF91DE080F8
:104B6000FFEFEF1210C0C901837099270196489F8B
:104B70009001499F300D1124820E931ED401EC90B8
:104B8000EF1201C0E12CB1E04B1638F0E2E0E41581
:104B9000C0F4F3E04F1609F43EC180915F08FBE4D6
:104BA0008F9FC00111248F509A4F0E948E108091C8
:104BB0007B05811102C00E94860A80919B058F5F50
:104BC000A3CA9E2CF12C6E2C712C23E0620E711C5A
:104BD0002BE4229DC001239D900D1124AC01475070
:104BE0005A4F1A019614170411F00CF042C0592DB7
:104BF0005370852E5516C1F140E0652FC8010E9403
:104C00000E0AD1016C9170E0F50150E040E090E0B7
:104C100046175707A4F4268582120AC0278530E07C
:104C2000B2E04B1649F0295C3E4FD9012C91920F0E
:104C30004F5F5F4F3596ECCF285D3E4FF6CF823009
:104C400089F0833099F0813049F49D3068F420E098
:104C5000482D652DC8010E945712F80EB3E0FB12D3
:104C600003C09BCF993198F39394BCCF9332E0F774
:104C7000EECFE2E0EF1508F493C0AA24A394B12C80
:104C80009601225F3F4FCF50DF4F39832883C15FAA
:104C9000D040C151DF4FA882CF5ED040912C812CF3
:104CA000F4E04F2EA5014C5F5F4FCD50DF4F59838D
:104CB0004883C35FD0403E2CCD50DF4F888199811F
:104CC000C35FD040880D991DCB50DF4F99838883F7
:104CD000C55FD0403614170411F00CF04EC0932D70
:104CE0009370292E591205C0ABE04A1205C03394C7
:104CF000F1CFBEE0B415D8F3E3E0FE1609F44DCFD2
:104D000040E0622DC8010E940E0AC351DF4F888324
:104D1000CD5ED0404FEF622DC8010E94390A8F3F0F
:104D200031F3C351DF4FF881CD5ED040C151DF4F29
:104D30002881CF5ED040F213DACFCF50DF4F6881A9
:104D40007981C15FD04035E0839F600D711D1124D2
:104D500064517A4FDB0111968C918411C8CFCB50EE
:104D6000DF4FE881F981C55FD0403F9709F4BFCF9D
:104D7000C8010E941412F394BACFF3E0FF1609F4AD
:104D80000CCF43942FEF821A920A32E1431293CF51
:104D90004FEFA41AB40A5AE0A516B10409F079CF6E
:104DA000C8010E948E10E5E08E2E56018EE0A80EFE
:104DB000B11C92E09F1558F199249A9477247A9423
:104DC000E12C4FEF6E2DC8010E94390A8F3F61F030
:104DD000F601889DE00DF11D1124E650FA4F9181F6
:104DE000971510F4792E982EE394A4E0EA12E9CFF7
:104DF000BFEF9B16F1F2B501989C600D711D112457
:104E000064517A4FC8010E941412F394D2CFC801A2
:104E10000E948E10C2CEFE01F9969E012F5F3F4F79
:104E20004901CE018B5D9E4FDF01D79712961C92F0
:104E300012971596EA17FB07C9F7108211821282A2
:104E4000FB968E179F0781F7B401C8010E943E1799
:104E50008BE4829DF001839DF00D1124E451FA4F03
:104E60009585F50180E0981709F467C0BF01625F7E
:104E70007F4F35962285213111F08F5FF4CF8F3F20
:104E800009F45BC0C8010E941412FF24F39454017A
:104E9000712C27E0D501D9968C9181110DC0B2E01B
:104EA000BF1550F0472D652DC8010E945712F80E0E
:104EB000E3E0FE1609F471CE7394F4E07F123FC074
:104EC000B12CD401D9968C918F3FB1F040E06B2D7D
:104ED000C8010E940E0AEF2DE80FFF27FF1F34972D
:104EE0005CF420E04B2D652DC8010E945712F80E8E
:104EF000F3E0FF1609F451CEB3942BE3820E911C1C
:104F000034E0B312DECF61E1962EAE2CB12C43E03B
:104F1000A40EB11C5EE0C50ED11C75E0772E8E2C60
:104F20008A141B0409F094F5682D6370561211C0A1
:104F30008BE0981211C08394F3CFF12CA8CF8EEFA1
:104F4000870D26E0823008F027E03BE3A30EB11C7A
:104F5000A1CF9EE0991578F340E0C8010E94230A92
:104F60008F3F49F3B601879D600D711D1124645177
:104F70007A4FDB0111968C918911DDCFC8010E9417
:104F80001412F394B3E0FB12D6CF07CE9A94E3E069
:104F90009E12C5CF02CE80915A088F5F80935A0827
:104FA0001092EF051092EE058EE3AEC8E0905C081B
:104FB0002032310519F021E0E21281C911E0E1123D
:104FC00010E080915F0890E0019626E0289FF001B4
:104FD000299FF00D1124E850F84F8381823009F4A5
:104FE000D8C1833009F494C3813009F055C02091B1
:104FF0005B083BE4E39EC00111242E11C4C16E2C5A
:10500000712CAC014F505A4F6A01DA0117960C917E
:10501000A02EB12C95012E5F3F4FF901E370FF27C1
:10502000C351DF4FF983E883CD5ED040C351DF4FDA
:10503000F881CD5ED040C151DF4FF883CF5ED040C4
:10504000250123E0420E511C33E0432255244FEF4B
:10505000A41AB40A53E0A522BB2484519A4FDC0160
:1050600015968D909C90C4010E94DE0BF82EF401E1
:10507000E959FF4F80810817B1F0C151DF4FB88166
:10508000CF5ED040B81779F0412F6F2DC6010E9436
:105090004615882309F4C3C0F1E0EF1609F484C46F
:1050A0000E94070D0CC985E0849DF001859DF00DDF
:1050B0001124E80DF91D368C8A9DF0018B9DF00DB1
:1050C0001124E80DF91D268CF401EE59FF4F808163
:1050D000813079F4412F6F2DC6010E944615811150
:1050E000DBCF412F6F2DC6010E9456138111D4CF03
:1050F00028C0642DC4010E94690E082F6A2DC401C6
:105100000E94690EA82EC351DF4F6881CD5ED0404A
:10511000C4010E94690EB82E412F6F2DC6010111E6
:1051200002C0AA2039F10E9446158111B5CF212F66
:105130004F2D6F2DC6010E94CC148111ADCFB1103F
:10514000D0CF412F6F2DC6010E9435138111A4CFFE
:10515000212F4F2D6F2DC6010E94AB1481119CCFC2
:10516000012F222D432D6F2DC6010E94F0138111B6
:1051700093CF33C00E94351381118ECF212F4F2D35
:105180006F2DC6010E94AB14811186CF012F222DF5
:10519000432D6F2DC6010E94F01381117DCFB110F8
:1051A0002EC000E02BE4269DC001279D900D112408
:1051B000FC01EF50FA4F5F01C151DF4F4881CF5ED4
:1051C000D040602FD5018D919C910E94220E81507C
:1051D0008230E8F00F5F043079F7412F6F2DC60160
:1051E0000E94E114811158CF412F6F2DC6010E94FA
:1051F0003015412F6F2D81114FCFC6015DC1412F59
:105200006F2DC6010E945613882359F245CF412FB6
:10521000602FC6010E9430158823E1F23DCF912C0A
:10522000812C2BE4269DC001279D900D1124FC01AB
:10523000EF50FA4FC151DF4FF983E883CF5ED04082
:10524000440C551C440C551C1501220C331C220C1B
:10525000331C482DC151DF4FA881B981CF5ED040AA
:10526000ED91FC91DF01A40DB51DA80DB91DAF5A3C
:10527000BF4F8C91811158C0E20DF31DE80DF91D4F
:10528000EF5AFF4F808181114FC0BFEF8B1A9B0AED
:10529000E4E08E169104E9F6912C812C2BE4269DF6
:1052A000C001279D900D11249C012F503A4F1901E8
:1052B000AA0CBB1CAA0CBB1CD101ED91FC91DF0117
:1052C000A40DB51DA80DB91DAF5ABF4F8C918823F1
:1052D000A1F1BFEF8B1A9B0AE4E08E16910461F7EF
:1052E0008BE4869DF001879DF00D1124E451FA4F67
:1052F00085819681C351DF4F28813981CD5ED040B1
:105300002F5F3F4F46E0429FF001439FF00D112475
:10531000E80FF91F00810F3F19F5212F4F2D6F2D39
:10532000C6010E94AB1423CF212F6F2DC6010E940E
:10533000CC14882309F4A9CFAFCEEA0DFB1DE80DEC
:10534000F91DEF5AFF4F80818111C3CF212F482DC6
:105350006F2DC6010E94CC14882309F4BACF9CCECD
:10536000C351DF4F4881CD5ED040602F0E94220E96
:105370008150823090F6412F602FC6010E94301577
:10538000882359F289CE612F8F509A4F0E9465155C
:1053900083CE80915B083BE4E39EF00111248E11E3
:1053A0008EC06E2C712CAF014F505A4F4A01DA015A
:1053B0001796AC90B12CB2E0AB0EB11C33E0A32237
:1053C000BB24AF0144515A4F6A01A5014F5F5F4FA3
:1053D000249FC001259F900D1124D6011596ED91B3
:1053E000FC91E80FF91F0081412F6FEFC4010E946B
:1053F0003513811151CEFA2C4A2D602FF60185818B
:1054000096810E94220E0F3F09F400E0811101C035
:1054100000E0C02ED12CF3E0CF0ED11C2BE4269D52
:10542000C001279D900D11249C012F503A4F590126
:105430000C151D0409F0C4F4302F3370732E4F2D5A
:10544000632FD5018D919C910E94220E8150823054
:1054500010F00F5FEDCF212F472D6FEFC4010E9499
:1054600031148823B1F318CE412F6DE0C4010E949E
:105470006C13811111CE412F6CE0C4010E946C139A
:1054800081110ACE412F6BE0C4010E946C1381117F
:1054900003CE412F6FEFC4010E94E1148111FCCDB6
:1054A0000E94F6360E94F63624E030E040E050E0FC
:1054B0000E944E37412FC4010E944615EDCD9F0139
:1054C0002F503A4F6901D9011796BC91C351DF4F54
:1054D000B883CD5ED0408B2E912C240122E0420E69
:1054E000511C33E043225524CD50DF4F4882C35F27
:1054F000D040E451FA4FA580B6806FEFC5010E94FD
:10550000AF0D3C01F501ED59FF4F8081482F50E070
:10551000CB50DF4F59834883C55FD040D501E5E0CC
:105520008E9FA00DB11D11249D01225E3F4F1901D8
:10553000D9010C91E49DC001E59D900D11244E967A
:10554000F501E80FF91FC151DF4FF983E883CF5E02
:10555000D040F181CF50DF4FF883C15FD040602F42
:10556000C6010E944F0AF82ECF50DF4F2881C15F3D
:10557000D040222309F49EC0C5010E948D0C481220
:1055800049C0FF20D9F14FEF841A940A53E08522D5
:10559000992485E0889DF001899DF00D1124EA0D84
:1055A000FB1D878D882359F0412F602FC6010E9473
:1055B0003015412F602F882309F41FCE6DCDCF50B9
:1055C000DF4F4881C15FD040C151DF4FA881B98111
:1055D000CF5ED0406C91C6010E940E0AF82E482D75
:1055E000602FC5010E94220EFF20F1F28823E1F214
:1055F000412F602FC6010E941A15DBCFC6010E9401
:105600005E0A412F682F8F3F89F66FEFC6010E9417
:10561000E114CFCFFF2009F43EC0F301F180CB505D
:10562000DF4F88819981C55FD040039683709927A9
:10563000C351DF4F2881CD5ED04023702817190653
:1056400071F4212F4F2D602FC6010E94DB13412FD3
:10565000602F811121CDC6010E9430151DCDA10101
:105660006FEFC5010E949B0F212F4F2D602F8530BA
:1056700020F0C6010E94BD1303C0C6010E94DB13C7
:1056800081110ACD412F602FC6010E943015811172
:1056900003CD412FBACF412F602FC6010E9446157E
:1056A0008111FACCC6010E945E0A412F682F8F3FFC
:1056B00091F6ABCF882331F0212FD30111964C9175
:1056C000602FD7CF442D602FC5010E94220E882362
:1056D000B9F0C6010E945E0AF82EBFEF8B17C9F21F
:1056E0004FEF682FC6010E94390AB82E4F2D6FEF79
:1056F000C6010E94620FB110CCCF412F6F2DABCFEE
:10570000412F602FC6010E944615882311F3C4CC97
:1057100080915B082BE4E29EF00111248E117CC085
:105720004E2C512CAF014F505A4F6A01DA01179697
:105730008C91A82EB12CB3E0AB0EB11C23E0A222B9
:10574000BB24E451FA4F85809680F401E959FF4F5C
:105750009081891321C000E0602FC6010E94B60E1F
:105760008F3F31F0412F682FC6010E94D41294CC94
:105770000F5F043089F7412F6FEFC6010E94E114DB
:1057800081118ACC0E94F63624E030E040E050E0FF
:105790000E944E37412F31CDAA0CBB1CAA0CBB1C5A
:1057A000C5018F5A9F4F880E991E00E0D4018D913C
:1057B0004D01882331F0602FC6010E94B60E8F3F45
:1057C00089F60F5F043091F7912C812C2BE4249DF6
:1057D000C001259D900D1124FC01EF50FA4F3F01AF
:1057E000D301ED91FC91EA0DFB1DE80DF91DEF5A77
:1057F000FF4F8081811108C0BFEF8B1A9B0AE4E044
:105800008E16910469F7B7CF412F682DC6010E940B
:105810003015882389F340CC9F012F503A4F6901FE
:10582000D90117960C91402E512CB2E04B0E511C11
:1058300023E042225524E451FA4F8580968062E0AD
:10584000C4010E941F0CF82EC4010E948D0C3FEF72
:10585000F31649F0940145E0F49E200D311D11240A
:10586000D9015E965D018F3F49F09401B5E08B9FB1
:10587000200D311D1124F9017E963F01F401E959F3
:10588000FF4F908109131DC0212FD50111964C9116
:1058900011976C91C6010E949F138111FDCB412F7E
:1058A000F5016081C6010E9430158111F5CB412FB1
:1058B00060E0C6010E946C13412FD5018111ECCB31
:1058C00055C025E0249DF001259DF00D1124E80D23
:1058D000F91D378D332309F44BC0841124C0D40142
:1058E000929FA00DB11D11245E9611968C91119777
:1058F000882301F1F5016081F401ED59FF4F8081AA
:10590000F401829FE00DF11D1124968D8C91412FA1
:1059100098133AC0212FD50111964C91C6010E94CF
:105920009F138111B9CB412FF5016081C6010E94FF
:105930001A15BBCF212FD30111964C9111976C9161
:10594000C6010E949F138111A7CB412FF3016081F3
:10595000C6010E94301581119FCB412F60E0C60126
:105960000E946C13811198CB412FD3016C9145CCCF
:10597000212FF50141816081C6010E949F13811191
:105980008BCB412FD5016C91C6010E941A15811154
:1059900083CB412F60E0C6010E946C1381117CCB48
:1059A000412FF501608129CC80917B058823E1F0AE
:1059B0008CE396E00E94760A3091440690913E0670
:1059C00020913F06E5E4F6E080E0831769F040812E
:1059D000491303C04181421719F08F5F3596F5CF07
:1059E00091E0928380939A058FE30C948420103287
:1059F000C1F4E0919A05EE2311F40C945F211FEF9E
:105A00001E0F10939A058CE396E00E94760A25E01B
:105A1000129FF0011124EB5BF94F81E082830C941B
:105A20005F21103401F5E0919A05A0915C083BE4F8
:105A3000A39FD0011124AF50BA4F18968C9181507A
:105A4000990BE817190614F00C945F2111E01E0F52
:105A500010939A058CE396E00E94760A45E0149F25
:105A6000F0011124D8CF183011F00C945F21D090A0
:105A70009A05E0905C085BE4E59E70011124E5E086
:105A80008701DE9E000D111D112406501A4FD8010A
:105A900012968C911297882311F40C945F21C09078
:105AA0005B08CE9EF0011124EA5EF74FB080809132
:105AB0005F0890E0019626E0289FF001299FF00DF5
:105AC0001124E850F84F93819230A1F097012B5F99
:105AD0003F4F933011F0913061F58C91B81649F138
