:100000000C949B000C94C3000C94C3000C94C3008C
:100010000C94C3000C94C3000C94C3000C94C30054
:100020000C94C3000C94C3000C94E2060C9451078A
:100030000C94C3000C94C3000C94C3000C94C30034
:100040000C94C3000C94CD090C94C3000C94C30011
:100050000C94C3000C94C3000C94C3000C9483094B
:100060000C94C3000C94C3000C94C3000C94C30004
:100070000C94C3000C94C3000C94C3000C94C300F4
:100080000C94C3000C94C3000C94C3000C94C300E4
:100090000C94C3000C94C3000C94C3000C94C300D4
:1000A0000C94C3000C94C3000C94C300D5F08D14C1
:1000B000A1C881CFD9F1AF2000DB20C0A0D9218118
:1000C000FFA800A800A83F080B00020202000009D8
:1000D00004000001020200000524001001052401B3
:1000E000010104240206052406000107058103100E
:1000F000004009040100020A000000070502024056
:1001000000000705830240000004030904120100F7
:1001100002EF020140412336800001010203014148
:10012000726475696E6F204C4C4300417264756255
:100130006F790000F60911241FBECFEFDAE0DEBFB1
:10014000CDBF11E0A0E0B1E0EEE8F9E202C0059019
:100150000D92AE34B107D9F729E0AEE4B1E001C0A9
:100160001D92A439B207E1F710E0CBE9D0E004C05A
:100170002197FE010E94BF14CA39D107C9F70E9416
:10018000320A0C94C5140C940000E8EDF5E081816E
:10019000819385E0E53FF807D1F78091D7058093FB
:1001A000F505EFE6F6E0DF018DE111969C911197E0
:1001B0009D938150D1F7DF0111978C91858FB09677
:1001C00089E0EF38F80779F78091900990919109CB
:1001D00001969093910980939009809192098E31B4
:1001E00018F48F5F809392090895CF93DF93782F4F
:1001F000EEE6F6E080E0462F50E0A72FB0E0978DC6
:10020000923021F158F4992339F0913009F446C025
:100210008F5FB096893199F788E127C09430F1F16A
:1002200038F19530A9F79081292F22952F707217F8
:1002300009F441C030E0E9012196CA17DB07D9F182
:100240002E5F3F4FA217B30719F735C02081922FB9
:1002500092959F709713DCCF2F70261731F030E006
:100260002F5F3F4F2417350799F6DF91CF910895FF
:100270002081922F92959F707913CACF2F706217A9
:10028000A1F330E0E9012196C417D50771F32E5F81
:100290003F4F4217530709F0BBCFE7CF9081292F7B
:1002A00022952F70721739F030E02F5F3F4F2A17D9
:1002B0003B0709F0ADCF9F706913AACFD6CF2FEBC4
:1002C00033E0E5EDF5E0A0E0B0E0BD0180E00E94A4
:1002D000BC010E94AB01BD011296A20FB31F821791
:1002E000930799F38F5F9F4F21F4AF5FBF40DB010E
:1002F00078F00E94BD0340E0509183056091840531
:1003000080E20E94B001599A0E949403A0E0B0E0FC
:100310007CEF0E94BD034A2F509183055B0F6091D3
:100320008405611D82E00E94B001832F71FD822F40
:1003300070FD81910E94C801759518F421503040DC
:1003400019F01196AA2389F7599A0E94940321154E
:100350003105F9F608950E94F301982F0C94F901E4
:1003600059980E94C801862F0E94C801852F0E94BB
:10037000C801842F0C94C801462F50918305570F54
:1003800060918405681F83E00E94B0011EBC08953F
:100390008EBD00008EB50DB407FEFCCF0895E5EDCF
:1003A000F5E0AFEBB3E060E070E080E00E94BC01FC
:1003B0009D01AF0160E00E94EE018217930751F4A6
:1003C000D901FA0160E00E94F30181931197D9F7F6
:1003D00061E0F1CF0E94F901862F08950E94F30198
:1003E000982F0C94F3010DB407FEFDCF8EB51EBC03
:1003F00008950DB407FEFDCF8EB5599A0895FC01FE
:1004000080918205882311F13FB7F89482E08093B0
:10041000E9002091F200822F90E01816190614F4DA
:1004200081E090E0882339F0289844E640938105E4
:100430004091F1004083222339F02091F2002111F4
:1004400003C02BE62093E8003FBF08958FEF9FEF96
:1004500008952FB7F89483E08093E9009091E80025
:10046000892F807295FF04C09091F20080E4891B6F
:100470002FBF08958091790581110DC082E080938E
:10048000750584E0809376051092780510927705C3
:1004900081E08093790585E795E00895CF93DF9318
:1004A0001F92CDB7DEB76983DC01ED91FC9102802C
:1004B000F381E02D41E050E0BE016F5F7F4F099571
:1004C0000F90DF91CF91089583E08093E9008091B0
:1004D000F200882319F08AE38093E80008950E94CF
:1004E000290290E00895CF93DF931F92CDB7DEB736
:1004F000FC018485958597FD08C02FEF3FEF358778
:1005000024870F90DF91CF910895CE0101960E942C
:10051000FF01019719F4898190E0F3CF8FEF9FEFEE
:10052000F0CF0F931F93CF93DF931F92CDB7DEB71A
:100530008C01FC018485958597FF0BC0CE01019647
:100540000E94FF01019771F4898190E0F80195877D
:100550008487F801848595850F90DF91CF911F9155
:100560000F9108958FEF9FEFF1CFFC018485958562
:1005700097FD0BC09FB7F89482E08093E9008091CB
:10058000F2009FBF90E0019608959FB7F89482E033
:100590008093E9008091F2009FBF90E00895409120
:1005A0006F055091700520916D0530916E054217D1
:1005B0005307B4F49091E8009570E1F39091E8004E
:1005C00092FD19C08093F10080916F0590917005A4
:1005D00001968F739927892B19F48EEF8093E80089
:1005E00080916F05909170050196909370058093AE
:1005F0006F0581E0089580E00895EF92FF920F93D8
:100600001F93CF93DF93F82E192FE62E042F81E04E
:10061000860F880F0E94CF0283E00E94CF02CF2D69
:10062000D12FEC0EFD2EF11CCE15DF05B9F007FF22
:1006300013C0FE0184910E94CF02182F80E00E9417
:10064000CF02812321968111EFCFDF91CF911F91AE
:100650000F91FF90EF9008958881EDCF81E0F5CF65
:10066000DF92EF92FF920F931F93CF93DF93D82ED9
:100670008A01EB017B01E40EF51ECE15DF0559F072
:10068000D7FE12C0FE0184910E94CF0221968111F3
:10069000F4CF0FEF1FEFC801DF91CF911F910F91A2
:1006A000FF90EF90DF9008958881EECF0F931F9316
:1006B000CF93DF931F92CDB7DEB782E0898342E408
:1006C00050E067EC70E080E80E9430030E943A023C
:1006D000DC0112960D911C910115110589F0D801CC
:1006E000ED91FC910280F381E02DBE016F5F7F4FA1
:1006F000C801099597FD04C0F80100851185ECCF6C
:1007000089810F90DF91CF911F910F9108956150D2
:1007100030F02091F100FC0120830196F8CF289859
:1007200084E6809381050895599885E00E94C80168
:1007300080E00E94C80180FDFBCF599A089590E0A7
:10074000409F09F4142E5527090E151E600D711DCA
:10075000851F11240C94AC03462F50915F01570F55
:1007600060916001681F83E00E94B0011EBC089583
:1007700059980E94C801599A089586E00C94B803CC
:10078000FC010E945B04319728F068517C4F8F4F29
:100790009F4FF9CFAB01FC010E945B046417750702
:1007A0008E079F07C8F3089585E090E00C94C0037E
:1007B0008F929F92AF92BF92CF92DF92EF92FF9271
:1007C0000F931F93CF93DF936C017B018A0180917C
:1007D0000B01882309F45AC080918205882309F40B
:1007E00055C08091740580FF05C08091E000826053
:1007F0008093E000E801B12C8AEFA82E93E0892EC7
:100800002AE3922E209711F4BB20C9F10E942902FD
:10081000811108C0AA94AA20C9F181E090E00E9449
:10082000C003F0CF8C171D0611F00CF08C2F9FB772
:10083000F8948092E9002091E80025FD02C09FBF56
:10084000E1CF282F30E0C21BD30BF701815020F0FD
:1008500041914093F100FACFE20EF31EBB2021F04C
:100860009092E800B12CEBCF8091E80085FDE7CFB6
:100870009092E800BB24B394209709F3F3CF5D98DE
:1008800084E680937305101611063CF081E090E039
:10089000F6019383828310E000E0C801DF91CF91DD
:1008A0001F910F91FF90EF90DF90CF90BF90AF908E
:1008B0009F908F900895ABE5B1E02FB7F8947D91AC
:1008C0008D919C9166B52FBFA89B05C06F3F18F412
:1008D0007F5F8F4F9F4F22E0660F771F881F991F02
:1008E0002A95D1F7089530E73CBDDC0130E8439FFD
:1008F000C0011124A80FB91F5E91352F6111372F48
:100900003C93C89500C052235EBD0197A9F704D05F
:1009100003D030E50DB43CBD089580916105882376
:1009200029F081508093610581E0089580E0089569
:10093000E5EDF5E080E092E081110FC09093F605BF
:100940001092F8051092F7058F5F33968832A1F761
:100950001092660510926705089511A213A212A2C3
:10096000F3CF0C945F0180916A05809363059FB17A
:100970009095907F669B98601C9B946090936A050D
:100980008095892308953F924F925F926F927F9254
:100990008F929F92AF92BF92CF92DF92EF92FF928F
:1009A0000F931F93CF93DF9300D01F92CDB7DEB785
:1009B0003A01862EA1E6B1E0B701E02FDD24382E02
:1009C00096959695969531E061FD34E060FD330F84
:1009D00062FD32955FEF539F7001E094F09475953E
:1009E00067957595679575956795462F4F3F4CF4BC
:1009F0004095941B20FD440F489F600C711C8D1C7A
:100A00004FEF17FF0BC0300E20FF02C0000F111F69
:100A1000601A710A8D0817FD8394EE2750E845038C
:100A20000E0EA00DB11D5E1B351608F0352E57E0D9
:100A3000541B591714F4952FD39450E85319482E8A
:100A4000552421FD02C04318550820FF02C0440C64
:100A5000551C11245B824A82932E00905F01700C1A
:100A600000906001801C19C0599833E03EBD640CB1
:100A7000751C811CAA24831509F0A3940CD08EBC8C
:100A800007D07EBC05D06EBC03D01EBC03D0089539
:100A9000C8950000C895C895089564187508810820
:100AA000E3DF41151CF0992371F564C0A058BF4FD6
:100AB000C32C20FD0CC06EB51EBC699DBC90BF2030
:100AC000B128BD92C89500C0CA94A9F711C06EB5EF
:100AD0001EBC699DB001DEDFEEB41EBCE99C700156
:100AE000BC90F094BF20B72ABD92C895CA9479F7FC
:100AF0001124A319B1099A9509F45CC0AA2019F030
:100B00000DB4599AB1DFFD01E058FF4FC32C20FD11
:100B10000EC06EB51EBC699DBC90BE20B028BD92B3
:100B2000B080BF20B128B192CA9499F716C06EB5B3
:100B30001EBC699DB001BC90F080AEDF00C0EEB479
:100B40001EBCE99C0094B020B62ABD921094F120FE
:100B5000F72AF1920000CA9451F71124A50FB11D94
:100B60009A9561F6DD2031F1AA2021F00DB4599A51
:100B70007BDFC89520FD0CC06EB51EBC699DBC9086
:100B8000BE20B028BD92C89500C03A94A9F712C003
:100B90006EB51EBC699DB0017DDF9EB51EBC999DE2
:100BA000902DBC909095B922B62ABD92C8953A94E2
:100BB00079F7C8951124599A0DB40F900F900F90A2
:100BC000DF91CF911F910F91FF90EF90DF90CF9029
:100BD000BF90AF909F908F907F906F905F904F905D
:100BE0003F9008956F927F928F92AF92CF92DF9253
:100BF000EF92FF920F931F93DC01922F2A2DF92F72
:100C0000E42F3701802EC114D104A1F0969596955A
:100C10009695A0FC990F949F7001ED9C700C811C1F
:100C2000FC9C700C811CFD9C800CEC9C600C711C6D
:100C30001124811C7B018D01682DA301CF010E942D
:100C4000C3041F910F91FF90EF90DF90CF90AF9072
:100C50008F907F906F9008954F925F926F927F92E6
:100C60008F92AF92BF92CF92DF92EF92FF920F934B
:100C70001F93CF93DF93EC012B013901842E842F36
:100C8000B9010E94AC030E94F301B82E0E94F90141
:100C9000C038D105FCF490E449165104DCF49E01FF
:100CA0002B0D311D12161306ACF49201280F311DC5
:100CB000121613067CF492E0690E711C811C93E0FD
:100CC000A92E6801082D7301282F4B2DB201CE01EA
:100CD0000E94F205DF91CF911F910F91FF90EF904D
:100CE000DF90CF90BF90AF908F907F906F905F908C
:100CF0004F9008954F925F926F927F928F92AF9232
:100D0000BF92CF92DF92EF92FF920F931F93CF93F8
:100D1000DF932C01EB013901842E842FB9010E944D
:100D2000AC030E94F301B82E0E94F901C034D10532
:100D3000D4F492012B0D311D232BA9F09E01280F15
:100D4000311D121613067CF492E0690E711C811C91
:100D500092E0A92E6801082D7301282F4B2DBE01AA
:100D6000C2010E94F205DF91CF911F910F91FF9078
:100D7000EF90DF90CF90BF90AF908F907F906F906B
:100D80005F904F900895FC012081922F907F9051A9
:100D90002F70922B90830895FC012081922F907FD9
:100DA000905F2F70922B908308955C98FC012591A1
:100DB000CF012EBD00000DB407FEFDCF6150B1F78D
:100DC0005C9A08951F920F920FB60F9211248F9381
:100DD0009F938091E1009091E100937F9093E100D7
:100DE00083FF0FC01092E90091E09093EB00109206
:100DF000EC0092E39093ED001092820598E09093BE
:100E0000F00082FF22C093E09093E9009091F200FD
:100E1000992319F09AE39093E80090917305992330
:100E200041F090917305915090937305911101C019
:100E30005D9A90918105992341F09091810591509F
:100E400090938105911101C0289A84FF18C0809168
:100E5000E2008E7E81608093E2008091E1008F7ECF
:100E60008093E100809174058E7E8061809374058B
:100E70009F918F910F900FBE0F901F90189580FF3C
:100E8000F7CF8091E2008E7E80618093E2008091B6
:100E9000E1008E7E8093E100809174058E7E8160FA
:100EA000E5CF1F920F920FB60F921124CF92DF92CF
:100EB000EF92FF920F931F932F933F934F935F9364
:100EC0006F937F938F939F93AF93BF93EF93FF9312
:100ED000CF93DF93CDB7DEB76C97DEBFCDBF109257
:100EE000E9008091E80083FF25C068E0CE014596C7
:100EF0000E94870382EF8093E8008D8987FF39C0C5
:100F00009091E80090FFFCCF982F907609F034C1C3
:100F10009E894F89588D2F89F88C911131C0803866
:100F200061F5809172058093F1001092F1008EEFCF
:100F30008093E8006C960FB6F894DEBF0FBECDBF6D
:100F4000DF91CF91FF91EF91BF91AF919F918F91E1
:100F50007F916F915F914F913F912F911F910F91D1
:100F6000FF90EF90DF90CF900F900FBE0F901F90EB
:100F700018959EEF9093E800C7CF1092F100D5CF5F
:100F8000913059F48111D3CF4130510581F68091D0
:100F900072058D7F80937205CACF933049F4811119
:100FA000C6CF4130510519F6809172058260F2CFAB
:100FB000953041F48091E80080FFFCCF20682093B9
:100FC000E300B5CF963009F0A9C00B8D1C8D22E04F
:100FD0001092E9001092700510926F05F2122EC067
:100FE00010926E0510926D050E9456031F8299E0C3
:100FF0009983FA8291E09E8390EA98879AEF998785
:1010000020916F0530917005275F3F4F3C832B8304
:101010008D831092E9001092700510926F05109365
:101020006E0500936D0549E050E0BE016F5F7F4F94
:1010300080E00E9430030E94560379CF10936E0522
:1010400000936D050E943A02DC0112960D911C91ED
:101050000115110509F451C1D801ED91FC910480ED
:10106000F581E02DBE016B5E7F4FC80109950097A9
:1010700009F03EC1F80100851185EACFF3E0FF12C7
:101080000EC08F89882309F440C0823061F440E8A3
:1010900067E08BE291E00E94FD02811148CF81E27E
:1010A0008093EB0047CF813029F440E86BE08FE17B
:1010B00091E0F1CF833099F70E943A02DC01129659
:1010C000ED90FC908E010F5F1F4F6801E114F10459
:1010D00079F0D701ED91FC910680F781E02DB80100
:1010E000C7010995080F111DF701E084F184EECFC7
:1010F000D8011C92F60101900020E9F73197BF0159
:101100006C197D0940E0C601C6CF69E071E0FB01C2
:10111000449150E080E80E94300309CF973009F4F1
:10112000BECF983021F481E08093F10000CF993058
:1011300009F0FDCE837009F0B2CFE6E3F1E081E083
:1011400031E096E32191222371F08093E9003093FE
:10115000EB00DF0111972C912093EC009093ED00B0
:101160008F5F873079F78EE78093EA001092EA006C
:101170008F8980938205DBCE8B8D9C8D1092E90048
:101180001092700510926F0590936E0580936D0517
:10119000898D811192C08E899D89913A49F481325D
:1011A00009F07DCF47E050E064E071E080E0B3CF2C
:1011B000913209F074CF833269F48F89988DB0E051
:1011C000A0E08093000190930101A0930201B093ED
:1011D0000301ADCE803269F48091E80082FFFCCF3C
:1011E00067E084E091E00E9487038BEF8093E80042
:1011F0009ECE823209F09BCE8F8980930B01EEEF59
:10120000FFE7859194918B3F9C4D51F1E0E0F8E030
:101210008091040190910501A0910601B091070110
:10122000803B9440A105B105F1F480910B0180FD54
:101230001AC0EE3F8AE0F80789F587E797E79183C0
:101240008083809160008093710588E19BE00FB6F8
:10125000F894A895809360000FBE9093600067CECD
:10126000EEEFFAE0D5CF808191818737974709F07B
:101270005ECEA89580916000886180936000809127
:10128000710580936000EE3F2AE0F20789F08091BB
:10129000FE0A9091FF0A9183808349CE80819181DB
:1012A0008737980751F29093FF0A8093FE0AC5CFC3
:1012B0001092FF0A1092FE0A3ACE0E943A02DC0116
:1012C00012960D911C910115110509F4E8CED80173
:1012D000ED91FC910190F081E02DBE016B5E7F4F9E
:1012E000C8010995811123CEF80100851185EBCF46
:1012F000181619060CF41BCED2CEF1E0FF12BECEAA
:101300006DE071E004CF0F920FB68F939F93EF9330
:10131000FF93809156018D5F8D3708F08D57809334
:101320005601E7E5F1E080818E4F808391819F4FE8
:10133000918382818F4F828383818F4F8383EBE5FB
:10134000F1E080818F5F808381818F4F81838281F3
:101350008F4F828383818F4F83838FB18F60669994
:101360001C9B88278F3681F480915501981B9630FD
:1013700068F0E0E0F8E087E78083818388E180938C
:101380006000F0936000FFCF90935501FF91EF91C3
:101390009F918F910FBE0F9018951F920F920FB6CD
:1013A0000F9211248F939F9382E496E0909389008B
:1013B0008093880081E0809362059F918F910F90C8
:1013C0000FBE0F901F901895FC0120819FE0920F97
:1013D0009F70207F922B90830895FC01208191E0E3
:1013E000920F9F70207F922B908308951092880512
:1013F0001092870588EE93E0A0E0B0E08093890525
:1014000090938A05A0938B05B0938C0580E491E0BE
:1014100090938605809385058FEF9FEF90939205BB
:10142000809391051092D705E5EDF5E011A2339672
:1014300086E0ED34F807D1F7EEE6F6E01082178E7D
:10144000B09689E0EE38F807C9F710928F0910922C
:101450008E0910929109109290091092920910929F
:1014600093090895CDB7DEB76397DEBFCDBF7894FB
:1014700083E084BD83E085BD81E080936E00E1E878
:10148000F0E083E08083E0E881E08083E1E983E0CD
:101490008083E0E981E08083E1EC87E08083E3EC16
:1014A00081E08083E0EC82E08083E2EC81E0808375
:1014B000EAE787E08083806880831092820510923B
:1014C0007205109274058091D70081608093D700D7
:1014D00080EA8093D80089B5806189BD89B5826032
:1014E00089BD09B400FEFDCF81E090E00E94C003F9
:1014F0008091D8008F7C80618093D8008091E0003B
:10150000807F8093E0008091E1008E7E8093E100F7
:101510008DE08093E200559A209A81EC80937C00C4
:1015200081EF85B987EE84B982E38BB982EF8AB9FE
:10153000769A6E9880EF81BB10BA80E58CBD81E011
:101540008DBD0E94D4035F9A0E94D4035C98ECEA9C
:10155000F0E085918EBD00000DB407FEFDCFE93BA4
:10156000C1F75C9A81E88093640001E00093650014
:1015700062E089EB90E00E94D50668E08BEB90E09A
:101580000E94D5069FB7F89422E436E03093890094
:101590002093880083E0809380008BE1809381001A
:1015A000109285001092840080916F008260809379
:1015B0006F009FBF5E9AE4E1F0E082E39DEF60EF91
:1015C0007FEF25913591559145912851354909F481
:1015D000CA0180935F0190936001259135915591E7
:1015E00045912851354909F4BA01609383057093F8
:1015F00084058BEA0E94B8030E94CF0110928F09E4
:1016000010928E098091D505811106C00E94980420
:101610000093D5050E94B104F4E68F2E912CAAE028
:10162000FA2EEE24E3945E98F8948091620581117D
:1016300009C083B7816083BF7894889583B78E7F14
:1016400083BFF2CF10926205789410916B052FE75B
:1016500041E050E061E070E081EE94E00E947304AC
:1016600062E085EC90E00E94D5062FEF47E051E064
:1016700061E070E081E691E00E94730462E083EC37
:1016800090E00E94D506812F82508E3FF8F01F5FB8
:101690001983298120936B055E9A80916C058E30A9
:1016A00008F066C0E82FF0E0E85AF44F0C94BF143D
:1016B0006D0B6D0B6D0B6D0B6D0BC00BC90BC90B5F
:1016C000C90B5D0FCF0FCF0FCF0FCF0F80916105EB
:1016D0008F5F809361051982DCCF00916B0590913B
:1016E000D60591118C5FA82FB0E0BA83A98310E0D2
:1016F000B3E08B9F000D111D112428EF3DE841E060
:1017000060E170E080E290E00E947A0680918E09AC
:1017100090918F090C9769F410928F0910928E099D
:10172000E981FA813196E370FF27FA83E983E09338
:101730006C050E948D048823D9F080918E099091C8
:101740008F09019690938F0980938E09809164058B
:10175000803218F48F5F809364050E94B30488235D
:1017600039F080916405803219F485E080936C052E
:1017700080E090E0892B09F456CF0E94000051CF01
:10178000F6E0F0936C051092640510928F091092A8
:101790008E090E948D04882359F180918E099091C1
:1017A0008F09019690938F0980938E090E94B3044C
:1017B00089832091630590916A0593FB882780F9BE
:1017C0008E2523FF80E022FF91C092FB222720F983
:1017D0002E2530916C05363009F48AC0373009F473
:1017E000E9C0809164058E3F18F48F5F8093640593
:1017F00010916B05198380916C05863009F45FC1E7
:10180000873009F0B5CFD09064053981232F30E0BF
:101810003B8B2A8B87E28D1508F416C28091D60582
:1018200003E010E0811102C010E000E0AA89BB894A
:101830000A0F1B1F2CEA3BEC41E070E060E090E0F7
:1018400080E00E947A0656EFC52ECD0CBCE1BC1597
:1018500008F4DCC1E6E2F0E0ED19F109E05FFE4FCB
:1018600090810A891B892CE53EEB41E061E070E044
:10187000E4E3F0E0DF01A91BB10997FDB395CD01C9
:101880000E942C0685EF8D0D8C3108F0C9C1E6E26F
:10189000F0E0ED19F109E05FFE4F8081082E000CA9
:1018A000990B0A891B8928EC33EC41E066E170E072
:1018B0000A960E942C06BCE1BC1508F4BBC1E6E206
:1018C000F0E0ED19F109E05FFE4F90810A891B8974
:1018D0002AEB37EC41E06BE270E0E0E4F0E0DF019E
:1018E000A91BB10997FDB395CD015DC120E071CF72
:1018F000098104FF0CC08091D605882341F0109225
:10190000D60510928F0910928E090E94B104198198
:1019100017FF0DC08091D605811109C021E02093E9
:10192000D60510928F0910928E090E94B104809101
:101930008E0990918F09499708F453CF098103FFCD
:1019400050CF809164008E7F8093640080917A00F4
:10195000806480937A0080917A0086FDFCCF0091AC
:101960007800109179000E945B04AB01BC01C801B2
:10197000B0E0A0E0DC01992788278C019D01040FCD
:10198000151F261F371FC901B8012091640021606F
:1019900020936400611571058105910511F00E9485
:1019A0003F1487E080936C058BE08093680510926C
:1019B000640517CF222339F0209169052A3018F4E5
:1019C00025E020936C05882391F0809168058A308A
:1019D00070F420916705822F880F880F820F209165
:1019E0006605820F8093930989E080936C0593FFCD
:1019F00060C0809168058F5F8093680592FF5CC02E
:101A0000809169058F5F80936905809168058132B7
:101A100040F080916905813220F00E9498040E9474
:101A2000B104198115FF07C080916605882319F05C
:101A300081508093660580916705098106FF14C077
:101A400090916605943080F49F5FE82FEE0FEE0FC3
:101A5000E80FE90F13E0E19FF0011124EA50FA4F7B
:101A60002081211190936605098104FF16C08730FB
:101A7000A0F4E0916605EB5F982F990F990F980FEE
:101A8000E90F13E0E19FF0011124EA50FA4F908131
:101A9000992319F08F5F80936705098107FFA1CE15
:101AA00080916705882309F49CCE81508093670557
:101AB00098CE10926805A2CF10926905A6CF8091AA
:101AC000D60503E010E0811102C010E000E039818A
:101AD000232F30E03A832983020F131F2CEA3BECBB
:101AE00041E070E060E090E080E00E947A06D090F3
:101AF000640562EEC62ECD0C8CE18C1508F456C040
:101B0000ED2DF0E0EE50FF4F808109811A812CE528
:101B10003EEB41E061E070E0082E000C990B0E9462
:101B20002C0681EE8D0D8C3108F04EC0ED2DF0E0CD
:101B3000EE50FF4F908109811A8128EC33EC41E08F
:101B400066E170E0EEE3F0E0DF01A91BB10997FD6B
:101B5000B395CD010E942C06BCE1BC1508F451C020
:101B6000ED2DF0E0EE50FF4F8081082E000C990B18
:101B700009811A812AEB37EC41E06BE270E00A96AA
:101B80000E942C0680918E0990918F09813C9105CD
:101B900008F4EECD09811A812EEA33EE41E060E3CC
:101BA00070E087E690E00E942C06E2CD9AE39D1556
:101BB00008F0B7CF09811A812CE53EEB41E061E0E6
:101BC00070E08AE190E0ABCFEAE3ED1508F0B7C52D
:101BD00009811A8128EC33EC41E066E170E084E28F
:101BE00090E00E942C06FCE1FC1508F0B9CF0981B9
:101BF0001A812AEB37EC41E06BE270E084E290E07E
:101C0000BFCF0AE30D1508F0BDCFF1CF0A891B89BC
:101C10002CE53EEB41E061E070E08AE190E030CEFF
:101C20000A891B8928EC33EC41E066E170E084E22C
:101C300090E03FCE0A891B892AEB37EC41E06BE24A
:101C400070E084E290E0AFCFD0906705ED2DF0E03A
:101C5000E35DFE4F80814D2C440C440C4D0C4986B5
:101C6000E5EDF5E0FC83EB832A883B88512C412C81
:101C7000082F10E01B870A8738862F8291012F5E7C
:101C80003E4F3D872C878B819C81AA85BB858A1B13
:101C90009B0BFC01E55DF540FA83E9835E824D8292
:101CA000712C612CB12CA12C810107561F4F1F876D
:101CB0000E8791012D5F3F4F398B288BEB81FC8183
:101CC000E60DF71D81A108891989813031F00C8555
:101CD0001D85823021F40E851F85060D171D28E213
:101CE0003DE242E069817A81C5010E947A06C09096
:101CF00066053985C30E8D819E81C8161906A1F42B
:101D000080918E0990918F0960E370E00E94AB147E
:101D1000489750F40A891B892AEA32E542E0698132
:101D20007A81C5010E942C069FE0A90EB11CAD81ED
:101D3000BE811196BE83AD83B3E06B0E711CEBE4E4
:101D4000AE16B10409F0BACFFFE02F0E311C05E04A
:101D5000400E511C2B813C81215F3F4F3C832B83E4
:101D600038E24316510409F08ECF8091D60508E180
:101D700010E0811102C010E000E033E0B32EDB9CE4
:101D8000000D111D11248F819885080F191F2CE259
:101D900034E542E070E060E08BE490E00E947A0677
:101DA000CB9C600111240F8118850C0D1D1D23E3B0
:101DB00035EA42E062E070E083E790E00E947A0654
:101DC000D601AA50BA4F6D010C91802F90E08C0182
:101DD000000F111F080F191FEF81F8850E0F1F1F2D
:101DE0002EEA33EA42E061E170E084E590E00E948F
:101DF0007A06D6018C91813009F0BACC0A891B8908
:101E00002DE53AEA42E060E270E082E590E00E946F
:101E10007A06F60181819281B4010E94AB148B0194
:101E2000000F111F060F171F2A893B89020F131F6E
:101E300023E73BEA42E069E270E081E790E00E943C
:101E40007A06D60111968D919C91B4010E94AB1433
:101E50001AE0A12EB12CB5010E94AB148B01000F2A
:101E6000111F060F171FEA89FB890E0F1F1F23E79B
:101E70003BEA42E069E270E086E790E00E947A0681
:101E8000D60111968D919C91B4010E94AB14B501BD
:101E90000E94AB148C01000F111F080F191FEA8953
:101EA000FB890E0F1F1F23E73BEA42E069E270E067
:101EB0008BE790E00E947A065BCC1092D705E8EDA4
:101EC000F5E085ED95E026EF35E011922E173F07FE
:101ED000E1F7109292091092910910929009EEE6A2
:101EE000F6E045EF58E0178E108230E020E0D9018F
:101EF000A656BF4FA80FB91F1C922F5F3F4F2E3120
:101F00003105A9F7B09680964817590761F703E0A5
:101F100020E04091930960E87DE881E00E949F0302
:101F20000E94EE01B82E0E94F901A82EC92E198236
:101F300010E001E020E049818C2DB5010E949F0353
:101F40000E94F9018B8349814F5F20E08C2DB50100
:101F50000E949F030E94F901D82E49814E5F20E024
:101F60008C2DB5010E949F030E94F90100E2109F91
:101F7000F0011124E259F94F2B812295207F3D2D4C
:101F80003F70D32ED22AD082878F99819D5F99830B
:101F9000882311F01F5FCDCFAAE0A0936C05C090FD
:101FA0006B050E948D04882309F4AAC1A0906C05DA
:101FB00070906A050E94B304D82E1091D705012FA6
:101FC0000F70B12EB294AFE0BA22602F8B2D0E9419
:101FD000F50020E2829FF0011124E259F94FFA83C3
:101FE000E98380918E0990918F09019690938F09D2
:101FF00080938E09D2FE08C03AE0A316B1F1A31671
:1020000018F08DE08A15D8F580916C0573FEF3C049
:102010008A3009F05DC0A981BA815F968C918823CE
:1020200009F46EC1D5FE2FC0813031F008F450C0E4
:102030008450823008F04CC0E981FA816081862F9B
:1020400082958F7009F444C06F7081500E94F50032
:102050008831F1F50E94C50089819A810E94C306EA
:1020600087ED95E00E94C30633C0809192098111EB
:1020700004C08CE080936C05C7CF8BE0FBCF9AE067
:1020800090936C05C1CFD6FE6AC0843009F451C06C
:10209000853009F458C08130D9F4A981BA818C9176
:1020A000682F6F7082958F70623081F48E5F0E940E
:1020B000F500883169F40E94C50089819A810E94E7
:1020C000CC0687ED95E00E94CC0602C0843070F308
:1020D0008091D705803608F413C1A091930983E05D
:1020E000A89FD0011124AA50BA4FEC9220919009D8
:1020F00030919109A0919309A89FD0011124AA5071
:10210000BA4F12963C932E931197E0919309E732C0
:1021100050F4EF5FE89FF0011124EA50FA4F8081FC
:10212000882309F489C287E080936C050E94B1047A
:10213000E7C0E981FA816081862F82958F708430B3
:1021400038F66F70B3CFA981BA816C91862F8295D2
:102150008F70833008F0BCCF6F708D5FA8CFD7FE33
:102160001EC08250823008F0B3CFE981FA818081AD
:10217000682F6F7009F4ACCF615082958F700E9408
:10218000F500883109F0A4CF0E94C50089819A81A9
:102190000E94E40987ED95E00E94E40999CFD4FEFE
:1021A00097CF823069F0833009F092CFE981FA81CC
:1021B0008081682F6F70633008F08ACF6D5F09C02F
:1021C000A981BA818C91682F6F70643008F080CF3C
:1021D0006E5F82958F700E94F500883109F078CF8C
:1021E0000E94C50089819A810E94ED0987ED95E0E2
:1021F0000E94ED096DCFD3FE50C08C3009F444C06D
:102200008D3009F445C08B3009F062CF809192097E
:10221000882391F180919009909191090197909371
:102220009109809390098091F5058093D70588EBFB
:1022300095E0E5EDF5E0278D20A331978E179F07F8
:10224000D1F71092D805EEE6F6E02EE839E0868D5B
:102250008083DF015E968DE19E9111969C9311978C
:102260008150D1F71182B0962E173F0781F78091E8
:10227000920981508093920980919209811128CF0F
:10228000FAE0F0936C0524CF89E080936C0520CFB1
:102290008BE08093680587E0F8CF8B3009F4BCC1F0
:1022A00000F58A3009F014CFD5FE36C1A981BA8174
:1022B0005F968C918430F0F4823000F58823F1F041
:1022C000813009F005CFE981FA81808182958F7094
:1022D00009F452C18150F0E18F9FC0011124082BF5
:1022E0004BC18C3009F49CC18D3009F0F1CED7FC84
:1022F00095C1EECE863008F0EBCEE5CFB110B0CE72
:102300008091D60503E010E0811102C010E000E0EA
:10231000EC2DF0E0FA83E9830E0F1F1F20ED34EE61
:1023200041E070E060E090E080E00E947A068091F9
:102330006C05893009F489C18A50909192099111F4
:102340008C5F9091D6059111885F09811A81F3E025
:102350008F9F000D111D112422ED3CEF41E066E23C
:1023600070E083E590E00E947A068091D6052CE229
:1023700031E0811102C030E020E000919309802F0C
:1023800090E001968C01000F111F080F191F020F1A
:10239000131F29813A81020F131F21EC3CEA42E00E
:1023A00070E060E081E790E00E947A068091D605B7
:1023B0002EE130E0811102C030E020E080919009F0
:1023C00090919109B4010E94AB148B01000F111F71
:1023D000060F171F89819A81080F191F020F131FFB
:1023E0002BE03CEA42E068E070E08DE690E00E947D
:1023F0007A068091D6052CE231E0811102C030E0EE
:1024000020E08091900990919109B4010E94AB1451
:102410008C01000F111F080F191FA981BA810A0F23
:102420001B1F020F131F21EC3CEA42E068E070E042
:1024300081E790E00E947A068091D705682F6F703F
:1024400082958F700E94F500A82E5EE6C52E56E09C
:10245000D52EB12C00E0AB1011C080918E09909167
:102460008F0960E370E00E94AB149C0191E0283179
:10247000310508F090E0092F000F090F8091D60573
:10248000882309F4E4C086E0080FF601878D8330C5
:1024900009F43FC108F0DDC0813009F4F5C0823095
:1024A00009F421C1B394F0E2CF0ED11C09E1B012BE
:1024B000D1CF18E1A1125CC980918E0990918F094A
:1024C00060E370E00E94AB149C0191E0283131057B
:1024D00008F090E0092F000F090F8091D60596E0D3
:1024E000811101C090E08091D705090F29813A81BF
:1024F000200F311D8901682F6F706F9DB00111246D
:102500006F5F7F4F82958F708F9DC001112426E1F0
:102510003BE242E0069647CBD6FE31C0A981BA81A4
:102520005F968C91843080F4823000F58823F1F03E
:10253000813009F0CDCDE981FA81808182958F705B
:102540008430C8F48E5FC7CE8430A9F3853009F09B
:10255000BFCDA981BA818C9182958F70833058F458
:102560008D5FB0E18B9FC0011124B9CEB4E0BB15E3
:1025700008F4AECDA6CD00650093D705A9CDD7FE52
:1025800003C0E5E0EB15B0F4D4FEA2CDF5E0FB15F9
:1025900008F4A3CDA981BA815F968C91823029F18C
:1025A00028F0833059F1863008F092CD053008F0DC
:1025B000A7CE1CCEA981BA815F968C91843070F42D
:1025C000823078F0E981FA8180818F70107F8823D2
:1025D000F1F08150812B8093D7057ACD863008F0B9
:1025E00077CD002309F48CCED5CDE981FA818081A5
:1025F0008F70107F843070F48E5FECCFA981BA8128
:102600008C918F70107F833028F48D5F182B10937E
:10261000D7055ECD1560FBCFD4FE5ACD8CE035CE0C
:10262000D7FE04C080919209811104C0D4FE50CD20
:102630008DE02BCE8BE029CE82E0808380919309C0
:102640008F5F8093930989E06FCD80E076CE80E044
:102650001BCF843091F1853009F024CF8081E9814E
:10266000FA81E00FF11D8F01682F6F706F9DB0012F
:1026700011246F5F7F4F82958F708F9DC001112451
:1026800022E531E242E015C08081E981FA81E00F64
:10269000F11D8F01682F6F706F9DB00111246F5F66
:1026A0007F4F82958F708F9DC001112424E237E205
:1026B00042E006960E942C06F5CE8081E981FA81DF
:1026C000E00FF11D8F01682F6F706F9DB001112415
:1026D0006F5F7F4F82958F708F9DC001112420E620
:1026E0003DE142E0E6CF8081E981FA81E00FF11D12
:1026F0008F01682F6F706F9DB00111246F5F7F4F46
:1027000082958F708F9DC001112424E236E142E052
:10271000D0CF8081E981FA81E00FF11D8F01682F10
:102720006F706F9DB00111246F5F7F4F82958F7026
:102730008F9DC00111242EE339E142E0BACF3CE184
:102740003C1508F41FCA0CCA8F929F92AF92BF9299
:10275000CF92DF92EF92FF92CF93DF93EC016881EB
:1027600079818A819B81611571058105910521F42B
:1027700064E279ED8BE597E02DE133EF41E050E045
:102780000E94481449015A019B01AC01A7EAB1E437
:102790000E9467146B017C01ACEEB4EFA5019401BB
:1027A0000E947514C60ED71EE81EF91EF7FE06C05D
:1027B00081E0C81AD108E10880E8F80AC882D98205
:1027C000EA82FB82C701B6019F77DF91CF91FF902C
:1027D000EF90DF90CF90BF90AF909F908F90089533
:1027E0008F929F92AF92BF92CF92DF92EF92FF9221
:1027F00060910C0170910D0180910E0190910F017B
:10280000611571058105910521F464E279ED8BE58F
:1028100097E02DE133EF41E050E00E944814490178
:102820005A019B01AC01A7EAB1E40E9467146B0155
:102830007C01ACEEB4EFA50194010E947514C60EA4
:10284000D71EE81EF91EF7FE06C081E0C81AD1089F
:10285000E10880E8F80AC0920C01D0920D01E092E4
:102860000E01F0920F01C701B6019F77FF90EF9024
:10287000DF90CF90BF90AF909F908F90089560931E
:102880000C0170930D0180930E0190930F01089538
:10289000052E97FB1EF400940E945F1457FD07D08D
:1028A0000E947A1407FC03D04EF40C945F145095E8
:1028B0004095309521953F4F4F4F5F4F089590952C
:1028C0008095709561957F4F8F4F9F4F08950E941F
:1028D0009C14A59F900DB49F900DA49F800D911DF9
:1028E00011240895B7FF0C9467140E946714821B8B
:1028F000930B0895A1E21A2EAA1BBB1BFD010DC06C
:10290000AA1FBB1FEE1FFF1FA217B307E407F5079F
:1029100020F0A21BB30BE40BF50B661F771F881F7B
:10292000991F1A9469F760957095809590959B0111
:10293000AC01BD01CF010895A29FB001B39FC001BA
:10294000A39F700D811D1124911DB29F700D811DDB
:102950001124911D0895AA1BBB1B51E107C0AA1F9A
:10296000BB1FA617B70710F0A61BB70B881F991F30
:102970005A95A9F780959095BC01CD010895EE0F69
:0E298000FF1F0590F491E02D0994F894FFCF0D
:10298E00FFFFFFFF00E1000000000000010000005B
:10299E0083909BA6B0BAC3CCD4DCE3EAF0F6FB007E
:1029AE0004080C0F1214161718181919190002061C
:1029BE0015242A363700C180810000000000000077
:0E29CE004E02D8036F026402B502730291023A
:00000001FF
